{
  "address": "0x2c7Ef2d70D34FA4bB6886b6c2C4072C12Cba4027",
  "abi": [
    {
      "inputs": [
        {
          "internalType": "address",
          "name": "_musicToken",
          "type": "address"
        },
        {
          "internalType": "address",
          "name": "_agentRegistry",
          "type": "address"
        }
      ],
      "stateMutability": "nonpayable",
      "type": "constructor"
    },
    {
      "anonymous": false,
      "inputs": [
        {
          "indexed": true,
          "internalType": "address",
          "name": "previousOwner",
          "type": "address"
        },
        {
          "indexed": true,
          "internalType": "address",
          "name": "newOwner",
          "type": "address"
        }
      ],
      "name": "OwnershipTransferred",
      "type": "event"
    },
    {
      "anonymous": false,
      "inputs": [
        {
          "indexed": true,
          "internalType": "uint256",
          "name": "proposalId",
          "type": "uint256"
        },
        {
          "indexed": true,
          "internalType": "address",
          "name": "agentAddress",
          "type": "address"
        },
        {
          "indexed": false,
          "internalType": "string",
          "name": "description",
          "type": "string"
        },
        {
          "indexed": false,
          "internalType": "string",
          "name": "newStrategy",
          "type": "string"
        },
        {
          "indexed": true,
          "internalType": "address",
          "name": "proposer",
          "type": "address"
        }
      ],
      "name": "ProposalCreated",
      "type": "event"
    },
    {
      "anonymous": false,
      "inputs": [
        {
          "indexed": true,
          "internalType": "uint256",
          "name": "proposalId",
          "type": "uint256"
        },
        {
          "indexed": true,
          "internalType": "address",
          "name": "agentAddress",
          "type": "address"
        },
        {
          "indexed": false,
          "internalType": "bool",
          "name": "accepted",
          "type": "bool"
        }
      ],
      "name": "ProposalExecuted",
      "type": "event"
    },
    {
      "anonymous": false,
      "inputs": [
        {
          "indexed": true,
          "internalType": "uint256",
          "name": "proposalId",
          "type": "uint256"
        },
        {
          "indexed": true,
          "internalType": "address",
          "name": "voter",
          "type": "address"
        },
        {
          "indexed": false,
          "internalType": "bool",
          "name": "support",
          "type": "bool"
        }
      ],
      "name": "VoteCast",
      "type": "event"
    },
    {
      "inputs": [],
      "name": "MIN_TOKENS_TO_PROPOSE",
      "outputs": [
        {
          "internalType": "uint256",
          "name": "",
          "type": "uint256"
        }
      ],
      "stateMutability": "view",
      "type": "function"
    },
    {
      "inputs": [],
      "name": "VOTING_PERIOD",
      "outputs": [
        {
          "internalType": "uint256",
          "name": "",
          "type": "uint256"
        }
      ],
      "stateMutability": "view",
      "type": "function"
    },
    {
      "inputs": [],
      "name": "agentRegistry",
      "outputs": [
        {
          "internalType": "contract IAIAgentRegistry",
          "name": "",
          "type": "address"
        }
      ],
      "stateMutability": "view",
      "type": "function"
    },
    {
      "inputs": [
        {
          "internalType": "address",
          "name": "agentAddress",
          "type": "address"
        },
        {
          "internalType": "string",
          "name": "description",
          "type": "string"
        },
        {
          "internalType": "string",
          "name": "ipfsMetadata",
          "type": "string"
        },
        {
          "internalType": "string",
          "name": "newStrategy",
          "type": "string"
        }
      ],
      "name": "createProposal",
      "outputs": [],
      "stateMutability": "nonpayable",
      "type": "function"
    },
    {
      "inputs": [
        {
          "internalType": "uint256",
          "name": "proposalId",
          "type": "uint256"
        }
      ],
      "name": "executeProposal",
      "outputs": [],
      "stateMutability": "nonpayable",
      "type": "function"
    },
    {
      "inputs": [
        {
          "internalType": "uint256",
          "name": "proposalId",
          "type": "uint256"
        }
      ],
      "name": "getProposal",
      "outputs": [
        {
          "internalType": "address",
          "name": "proposer",
          "type": "address"
        },
        {
          "internalType": "address",
          "name": "agentAddress",
          "type": "address"
        },
        {
          "internalType": "string",
          "name": "description",
          "type": "string"
        },
        {
          "internalType": "string",
          "name": "ipfsMetadata",
          "type": "string"
        },
        {
          "internalType": "string",
          "name": "newStrategy",
          "type": "string"
        },
        {
          "internalType": "uint256",
          "name": "votesFor",
          "type": "uint256"
        },
        {
          "internalType": "uint256",
          "name": "votesAgainst",
          "type": "uint256"
        },
        {
          "internalType": "uint256",
          "name": "endTime",
          "type": "uint256"
        },
        {
          "internalType": "bool",
          "name": "executed",
          "type": "bool"
        }
      ],
      "stateMutability": "view",
      "type": "function"
    },
    {
      "inputs": [
        {
          "internalType": "uint256",
          "name": "proposalId",
          "type": "uint256"
        },
        {
          "internalType": "address",
          "name": "voter",
          "type": "address"
        }
      ],
      "name": "hasVoted",
      "outputs": [
        {
          "internalType": "bool",
          "name": "",
          "type": "bool"
        }
      ],
      "stateMutability": "view",
      "type": "function"
    },
    {
      "inputs": [],
      "name": "musicToken",
      "outputs": [
        {
          "internalType": "contract IERC20",
          "name": "",
          "type": "address"
        }
      ],
      "stateMutability": "view",
      "type": "function"
    },
    {
      "inputs": [],
      "name": "owner",
      "outputs": [
        {
          "internalType": "address",
          "name": "",
          "type": "address"
        }
      ],
      "stateMutability": "view",
      "type": "function"
    },
    {
      "inputs": [],
      "name": "proposalCount",
      "outputs": [
        {
          "internalType": "uint256",
          "name": "",
          "type": "uint256"
        }
      ],
      "stateMutability": "view",
      "type": "function"
    },
    {
      "inputs": [
        {
          "internalType": "uint256",
          "name": "",
          "type": "uint256"
        }
      ],
      "name": "proposals",
      "outputs": [
        {
          "internalType": "uint256",
          "name": "id",
          "type": "uint256"
        },
        {
          "internalType": "address",
          "name": "proposer",
          "type": "address"
        },
        {
          "internalType": "address",
          "name": "agentAddress",
          "type": "address"
        },
        {
          "internalType": "string",
          "name": "description",
          "type": "string"
        },
        {
          "internalType": "string",
          "name": "ipfsMetadata",
          "type": "string"
        },
        {
          "internalType": "uint256",
          "name": "votesFor",
          "type": "uint256"
        },
        {
          "internalType": "uint256",
          "name": "votesAgainst",
          "type": "uint256"
        },
        {
          "internalType": "uint256",
          "name": "startTime",
          "type": "uint256"
        },
        {
          "internalType": "uint256",
          "name": "endTime",
          "type": "uint256"
        },
        {
          "internalType": "bool",
          "name": "executed",
          "type": "bool"
        },
        {
          "internalType": "string",
          "name": "newStrategy",
          "type": "string"
        }
      ],
      "stateMutability": "view",
      "type": "function"
    },
    {
      "inputs": [],
      "name": "renounceOwnership",
      "outputs": [],
      "stateMutability": "nonpayable",
      "type": "function"
    },
    {
      "inputs": [
        {
          "internalType": "address",
          "name": "newOwner",
          "type": "address"
        }
      ],
      "name": "transferOwnership",
      "outputs": [],
      "stateMutability": "nonpayable",
      "type": "function"
    },
    {
      "inputs": [
        {
          "internalType": "uint256",
          "name": "proposalId",
          "type": "uint256"
        },
        {
          "internalType": "bool",
          "name": "support",
          "type": "bool"
        }
      ],
      "name": "vote",
      "outputs": [],
      "stateMutability": "nonpayable",
      "type": "function"
    }
  ],
  "transactionHash": "0x547598f9f81841c3aae32ab297ff19521938d133bdef63816dbd53b81a2a44ea",
  "args": [
    "0x31A307fC55979632382FE6E5D71cAea482A18611",
    "0x6FdE87025b3BFC1be1782D52f6F9E0293Bb4194D"
  ],
  "numDeployments": 3,
  "solcInputHash": "43a06b5b27667ae6a55c919cc431e7b3",
  "bytecode": "0x6080346100c757601f61153338819003918201601f19168301916001600160401b038311848410176100cc5780849260409485528339810103126100c757610052602061004b836100e2565b92016100e2565b60008054336001600160a01b0319808316821784556040519590946001600160a01b03949093859391908416907f8be0079c531659141344cd1fd0a4f28419497f9722a3daafe3b4186f6b6457e09080a360018055168360025416176002551690600354161760035561143c90816100f78239f35b600080fd5b634e487b7160e01b600052604160045260246000fd5b51906001600160a01b03821682036100c75756fe6080604052600436101561001257600080fd5b6000803560e01c8063013cf08b14610f785780630d1cfcae14610f4f5780630d61b51914610ca85780634385963214610c53578063715018a614610bf95780638da5cb5b14610bd25780639dae1e7714610555578063b1610d7e14610538578063b6de6d1f14610514578063c7f758a81461043f578063c9d27afe146101cb578063da35c664146101ad578063eb3c79da146101845763f2fde38b146100b757600080fd5b34610181576020366003190112610181576100d06111c4565b6100d861123d565b6001600160a01b0390811690811561012d57600054826bffffffffffffffffffffffff60a01b821617600055167f8be0079c531659141344cd1fd0a4f28419497f9722a3daafe3b4186f6b6457e0600080a380f35b60405162461bcd60e51b815260206004820152602660248201527f4f776e61626c653a206e6577206f776e657220697320746865207a65726f206160448201526564647265737360d01b6064820152608490fd5b80fd5b50346101815780600319360112610181576002546040516001600160a01b039091168152602090f35b50346101815780600319360112610181576020600554604051908152f35b5034610181576040366003190112610181576024908135801515906004359082810361043b576101f9611364565b81845260209060048252604085206008810154421161040857600b8101913360005282845260ff604060002054166103d4576003546002830154604051633bdd6b1760e11b81526001600160a01b0391821660048201529091899082908c90829086165afa9081156103c9579161027c87928c9695948c9161039e575b506113ba565b60025416604051948580926370a0823160e01b82523360048301525afa92831561039357889361035f575b508215610329577fe71fcdac32df1877c1700e7bda2a03157e20993363a28fc35ac495cefc76e4d495969798506000146103135760056102ea9101918254611341565b90555b3360005281526040600020600160ff198254161790556040519384523393a36001805580f35b60066103229101918254611341565b90556102ed565b60405162461bcd60e51b815260048101869052600f818b01526e2737903b37ba34b733903837bbb2b960891b6044820152606490fd5b9092508481813d831161038c575b610377818361109e565b81010312610387575191386102a7565b600080fd5b503d61036d565b6040513d8a823e3d90fd5b6103ba91503d808e833e6103b2818361109e565b810190611295565b50505050505091505038610276565b6040513d8b823e3d90fd5b60405162461bcd60e51b815260048101859052600d818a01526c105b1c9958591e481d9bdd1959609a1b6044820152606490fd5b60405162461bcd60e51b815260048101849052600c818901526b159bdd1a5b99c8195b99195960a21b6044820152606490fd5b8380fd5b503461018157602036600319011261018157604090600435815260046020522060018060a01b0380600183015416906002830154169160058101549060068101546008820154906104f860ff600985015416936104ea6104a1600383016110d6565b916104dc6104bd600a6104b6600485016110d6565b93016110d6565b936040519b8c9b8c5260208c01526101208060408d01528b019061119f565b9089820360608b015261119f565b90878203608089015261119f565b9360a086015260c085015260e084015215156101008301520390f35b5034610181578060031936011261018157602060405168056bc75e2d631000008152f35b503461018157806003193601126101815760206040516102588152f35b50346101815760803660031901126101815761056f6111c4565b60243567ffffffffffffffff8111610bce5761058f9036906004016111f6565b60443567ffffffffffffffff811161043b576105af9036906004016111f6565b60643567ffffffffffffffff8111610bca576105cf9036906004016111f6565b916105d8611364565b6002546040516370a0823160e01b81523360048201526001600160a01b0393916020908290602490829088165afa8015610b3f578790610b8f575b68056bc75e2d63100000915010610b4a57602486846003541660405192838092633bdd6b1760e11b8252888b1660048301525afa908115610b3f578791610b1c575b5015610ad757835115610a9e576005546000198114610826576001019081600555818752600460205260408720918255600182016bffffffffffffffffffffffff60a01b903382825416179055600283019085881690825416179055825167ffffffffffffffff81116109d1576106cf6003840154611064565b601f8111610a5a575b50806020601f82116001146109f05789916109e5575b508160011b916000199060031b1c19161760038301555b80519067ffffffffffffffff82116109d15781906107266004850154611064565b601f8111610981575b50602090601f8311600114610912578992610907575b50508160011b916000199060031b1c19161760048201555b835167ffffffffffffffff81116108f35761077b600a830154611064565b601f81116108af575b50806020601f821160011461084557889161083a575b508160011b916000199060031b1c191617600a8201555b426007820155610258420190814211610826579161080a9160087f92aacf8dbc845727da92b41a0d1678fb42e984e58b11f746faf6f8b2bde2da6094015561081c6005549460405193849360408552604085019061119f565b9083820360208501523398169661119f565b0390a46001805580f35b634e487b7160e01b87526011600452602487fd5b90508501513861079a565b9150600a830188526020882088925b601f1983168410610897576001935082601f1981161061087e575b5050811b01600a8201556107b1565b87015160001960f88460031b161c19169055388061086f565b87810151825560209384019360019092019101610854565b600a8301885260208820601f830160051c8101602084106108ec575b601f830160051c820181106108e1575050610784565b8981556001016108cb565b50806108cb565b634e487b7160e01b87526041600452602487fd5b015190503880610745565b9250600484018952602089209089935b601f1984168510610966576001945083601f1981161061094d575b505050811b01600482015561075d565b015160001960f88460031b161c1916905538808061093d565b81810151835560209485019460019093019290910190610922565b90915060048401895260208920601f840160051c8101602085106109ca575b90849392915b601f830160051c820181106109bc57505061072f565b8b81558594506001016109a6565b50806109a0565b634e487b7160e01b88526041600452602488fd5b9050840151386106ee565b91506003840189526020892089925b601f1983168410610a42576001935082601f19811610610a29575b5050811b016003830155610705565b86015160001960f88460031b161c191690553880610a1a565b868101518255602093840193600190920191016109ff565b60038401895260208920601f830160051c810160208410610a97575b601f830160051c82018110610a8c5750506106d8565b8a8155600101610a76565b5080610a76565b60405162461bcd60e51b815260206004820152601160248201527014dd1c985d1959de481c995c5d5a5c9959607a1b6044820152606490fd5b60405162461bcd60e51b815260206004820152601760248201527f4167656e74206e6f74206c697374656420696e205443520000000000000000006044820152606490fd5b610b3091503d8089833e6103b2818361109e565b50505050505091505038610655565b6040513d89823e3d90fd5b60405162461bcd60e51b815260206004820152601c60248201527f4e6f7420656e6f75676820746f6b656e7320746f2070726f706f7365000000006044820152606490fd5b506020813d602011610bc2575b81610ba96020938361109e565b810103126103875768056bc75e2d631000009051610613565b3d9150610b9c565b8480fd5b8280fd5b5034610181578060031936011261018157546040516001600160a01b039091168152602090f35b5034610181578060031936011261018157610c1261123d565b600080546001600160a01b0319811682556001600160a01b03167f8be0079c531659141344cd1fd0a4f28419497f9722a3daafe3b4186f6b6457e08280a380f35b5034610181576040366003190112610181576024356001600160a01b0381169190829003610387576040600b9160043581526004602052200190600052602052602060ff604060002054166040519015158152f35b503461018157602080600319360112610f4b57600435610cc6611364565b8083526004825260408320906008820154421115610f10576009820192835460ff8116610ed85760018060a01b0390816003541690876002870192602482868654169260405192838092633bdd6b1760e11b82528660048301525afa8015610ecd57610d38918491610eb957506113ba565b6005880154600689015410978860019a8b60ff19809716179055610d8e575b50505050907f4fce71a6eb6a89b3e4c71722f870a263627cbfddc3a603c307803d89ad39e7cb9291541693604051908152a3805580f35b600a8660035416910193813b1561043b578a604051958694633e3bfb6560e01b865260048601526040602486015285928587835492610dcc84611064565b9586604485015284169384600014610e995750505050600114610e57575b50508383809203925af1801561039357610e07575b878180610d57565b67ffffffffffffffff8198929811610e4357604052957f4fce71a6eb6a89b3e4c71722f870a263627cbfddc3a603c307803d89ad39e7cb610dff565b634e487b7160e01b82526041600452602482fd5b855288852085925089908d905b838510610e7b575050505082016064018383610dea565b8054898601606401528f975088965093909101928a918e9101610e64565b1660648084019190915294151560051b820190940194509150610dea9050565b6103ba91503d8086833e6103b2818361109e565b6040513d85823e3d90fd5b60405162461bcd60e51b815260048101839052601060248201526f105b1c9958591e48195e1958dd5d195960821b6044820152606490fd5b60405162461bcd60e51b8152600481018490526013602482015272566f74696e67207374696c6c2061637469766560681b6044820152606490fd5b5080fd5b50346101815780600319360112610181576003546040516001600160a01b039091168152602090f35b50346101815760203660031901126101815760406020916004358152600483522061106081549160018060a01b03806001830154169060028301541691610fc1600382016110d6565b92610fce600483016110d6565b93600583015494611034600685015491611026600787015494600888015496611001600a60ff60098c0154169a016110d6565b996040519e8f9e8f908152015260408d015260608c61016091829101528c019061119f565b908a820360808c015261119f565b9560a089015260c088015260e0870152610100860152151561012085015283820361014085015261119f565b0390f35b90600182811c92168015611094575b602083101461107e57565b634e487b7160e01b600052602260045260246000fd5b91607f1691611073565b90601f8019910116810190811067ffffffffffffffff8211176110c057604052565b634e487b7160e01b600052604160045260246000fd5b90604051918260008254926110ea84611064565b9081845260019485811690816000146111595750600114611116575b50506111149250038361109e565b565b9093915060005260209081600020936000915b81831061114157505061111493508201013880611106565b85548884018501529485019487945091830191611129565b91505061111494506020925060ff191682840152151560051b8201013880611106565b60005b83811061118f5750506000910152565b818101518382015260200161117f565b906020916111b88151809281855285808601910161117c565b601f01601f1916010190565b600435906001600160a01b038216820361038757565b67ffffffffffffffff81116110c057601f01601f191660200190565b81601f820112156103875780359061120d826111da565b9261121b604051948561109e565b8284526020838301011161038757816000926020809301838601378301015290565b6000546001600160a01b0316330361125157565b606460405162461bcd60e51b815260206004820152602060248201527f4f776e61626c653a2063616c6c6572206973206e6f7420746865206f776e65726044820152fd5b906101208282031261038757815167ffffffffffffffff811161038757820181601f820112156103875780516112ca816111da565b926112d8604051948561109e565b81845260208284010111610387576112f6916020808501910161117c565b91602082015191604081015180151581036103875791606082015191608081015160018060a01b0381168103610387579160a08201519160c08101519161010060e083015192015190565b9190820180921161134e57565b634e487b7160e01b600052601160045260246000fd5b600260015414611375576002600155565b60405162461bcd60e51b815260206004820152601f60248201527f5265656e7472616e637947756172643a207265656e7472616e742063616c6c006044820152606490fd5b156113c157565b60405162461bcd60e51b815260206004820152601d60248201527f4167656e74206e6f206c6f6e676572206c697374656420696e205443520000006044820152606490fdfea2646970667358221220798d3f77181f3c4614ca7c818ffd2fbb7a82b3817398f10e88b2d0c12227ab4564736f6c63430008140033",
  "devdoc": {
    "kind": "dev",
    "methods": {
      "owner()": {
        "details": "Returns the address of the current owner."
      },
      "renounceOwnership()": {
        "details": "Leaves the contract without owner. It will not be possible to call `onlyOwner` functions. Can only be called by the current owner. NOTE: Renouncing ownership will leave the contract without an owner, thereby disabling any functionality that is only available to the owner."
      },
      "transferOwnership(address)": {
        "details": "Transfers ownership of the contract to a new account (`newOwner`). Can only be called by the current owner."
      }
    },
    "version": 1
  },
  "userdoc": {
    "kind": "user",
    "methods": {},
    "version": 1
  },
  "storageLayout": {
    "storage": [
      {
        "astId": 7,
        "contract": "contracts/AgentGovernance.sol:AgentGovernance",
        "label": "_owner",
        "offset": 0,
        "slot": "0",
        "type": "t_address"
      },
      {
        "astId": 123,
        "contract": "contracts/AgentGovernance.sol:AgentGovernance",
        "label": "_status",
        "offset": 0,
        "slot": "1",
        "type": "t_uint256"
      },
      {
        "astId": 2019,
        "contract": "contracts/AgentGovernance.sol:AgentGovernance",
        "label": "musicToken",
        "offset": 0,
        "slot": "2",
        "type": "t_contract(IERC20)842"
      },
      {
        "astId": 2022,
        "contract": "contracts/AgentGovernance.sol:AgentGovernance",
        "label": "agentRegistry",
        "offset": 0,
        "slot": "3",
        "type": "t_contract(IAIAgentRegistry)2012"
      },
      {
        "astId": 2064,
        "contract": "contracts/AgentGovernance.sol:AgentGovernance",
        "label": "proposals",
        "offset": 0,
        "slot": "4",
        "type": "t_mapping(t_uint256,t_struct(Proposal)2049_storage)"
      },
      {
        "astId": 2066,
        "contract": "contracts/AgentGovernance.sol:AgentGovernance",
        "label": "proposalCount",
        "offset": 0,
        "slot": "5",
        "type": "t_uint256"
      }
    ],
    "types": {
      "t_address": {
        "encoding": "inplace",
        "label": "address",
        "numberOfBytes": "20"
      },
      "t_bool": {
        "encoding": "inplace",
        "label": "bool",
        "numberOfBytes": "1"
      },
      "t_contract(IAIAgentRegistry)2012": {
        "encoding": "inplace",
        "label": "contract IAIAgentRegistry",
        "numberOfBytes": "20"
      },
      "t_contract(IERC20)842": {
        "encoding": "inplace",
        "label": "contract IERC20",
        "numberOfBytes": "20"
      },
      "t_mapping(t_address,t_bool)": {
        "encoding": "mapping",
        "key": "t_address",
        "label": "mapping(address => bool)",
        "numberOfBytes": "32",
        "value": "t_bool"
      },
      "t_mapping(t_uint256,t_struct(Proposal)2049_storage)": {
        "encoding": "mapping",
        "key": "t_uint256",
        "label": "mapping(uint256 => struct AgentGovernance.Proposal)",
        "numberOfBytes": "32",
        "value": "t_struct(Proposal)2049_storage"
      },
      "t_string_storage": {
        "encoding": "bytes",
        "label": "string",
        "numberOfBytes": "32"
      },
      "t_struct(Proposal)2049_storage": {
        "encoding": "inplace",
        "label": "struct AgentGovernance.Proposal",
        "members": [
          {
            "astId": 2024,
            "contract": "contracts/AgentGovernance.sol:AgentGovernance",
            "label": "id",
            "offset": 0,
            "slot": "0",
            "type": "t_uint256"
          },
          {
            "astId": 2026,
            "contract": "contracts/AgentGovernance.sol:AgentGovernance",
            "label": "proposer",
            "offset": 0,
            "slot": "1",
            "type": "t_address"
          },
          {
            "astId": 2028,
            "contract": "contracts/AgentGovernance.sol:AgentGovernance",
            "label": "agentAddress",
            "offset": 0,
            "slot": "2",
            "type": "t_address"
          },
          {
            "astId": 2030,
            "contract": "contracts/AgentGovernance.sol:AgentGovernance",
            "label": "description",
            "offset": 0,
            "slot": "3",
            "type": "t_string_storage"
          },
          {
            "astId": 2032,
            "contract": "contracts/AgentGovernance.sol:AgentGovernance",
            "label": "ipfsMetadata",
            "offset": 0,
            "slot": "4",
            "type": "t_string_storage"
          },
          {
            "astId": 2034,
            "contract": "contracts/AgentGovernance.sol:AgentGovernance",
            "label": "votesFor",
            "offset": 0,
            "slot": "5",
            "type": "t_uint256"
          },
          {
            "astId": 2036,
            "contract": "contracts/AgentGovernance.sol:AgentGovernance",
            "label": "votesAgainst",
            "offset": 0,
            "slot": "6",
            "type": "t_uint256"
          },
          {
            "astId": 2038,
            "contract": "contracts/AgentGovernance.sol:AgentGovernance",
            "label": "startTime",
            "offset": 0,
            "slot": "7",
            "type": "t_uint256"
          },
          {
            "astId": 2040,
            "contract": "contracts/AgentGovernance.sol:AgentGovernance",
            "label": "endTime",
            "offset": 0,
            "slot": "8",
            "type": "t_uint256"
          },
          {
            "astId": 2042,
            "contract": "contracts/AgentGovernance.sol:AgentGovernance",
            "label": "executed",
            "offset": 0,
            "slot": "9",
            "type": "t_bool"
          },
          {
            "astId": 2044,
            "contract": "contracts/AgentGovernance.sol:AgentGovernance",
            "label": "newStrategy",
            "offset": 0,
            "slot": "10",
            "type": "t_string_storage"
          },
          {
            "astId": 2048,
            "contract": "contracts/AgentGovernance.sol:AgentGovernance",
            "label": "hasVoted",
            "offset": 0,
            "slot": "11",
            "type": "t_mapping(t_address,t_bool)"
          }
        ],
        "numberOfBytes": "384"
      },
      "t_uint256": {
        "encoding": "inplace",
        "label": "uint256",
        "numberOfBytes": "32"
      }
    }
  }
}