{
  "address": "0xC4F8CC4b1D595Cce07166F892FAF9Fa7f7067ab8",
  "abi": [
    {
      "inputs": [
        {
          "internalType": "address",
          "name": "_musicToken",
          "type": "address"
        }
      ],
      "stateMutability": "nonpayable",
      "type": "constructor"
    },
    {
      "anonymous": false,
      "inputs": [
        {
          "indexed": true,
          "internalType": "string",
          "name": "modelHash",
          "type": "string"
        },
        {
          "indexed": false,
          "internalType": "address",
          "name": "challenger",
          "type": "address"
        },
        {
          "indexed": false,
          "internalType": "uint256",
          "name": "stake",
          "type": "uint256"
        }
      ],
      "name": "AgentChallenged",
      "type": "event"
    },
    {
      "anonymous": false,
      "inputs": [
        {
          "indexed": false,
          "internalType": "string",
          "name": "modelHash",
          "type": "string"
        },
        {
          "indexed": false,
          "internalType": "address",
          "name": "owner",
          "type": "address"
        },
        {
          "indexed": false,
          "internalType": "uint256",
          "name": "stake",
          "type": "uint256"
        },
        {
          "indexed": false,
          "internalType": "string",
          "name": "metadata",
          "type": "string"
        }
      ],
      "name": "AgentSubmitted",
      "type": "event"
    },
    {
      "anonymous": false,
      "inputs": [
        {
          "indexed": true,
          "internalType": "string",
          "name": "modelHash",
          "type": "string"
        },
        {
          "indexed": false,
          "internalType": "bool",
          "name": "accepted",
          "type": "bool"
        },
        {
          "indexed": false,
          "internalType": "uint256",
          "name": "winnerReward",
          "type": "uint256"
        },
        {
          "indexed": false,
          "internalType": "uint256",
          "name": "voterRewards",
          "type": "uint256"
        }
      ],
      "name": "ChallengeResolved",
      "type": "event"
    },
    {
      "anonymous": false,
      "inputs": [
        {
          "indexed": true,
          "internalType": "string",
          "name": "modelHash",
          "type": "string"
        },
        {
          "indexed": true,
          "internalType": "address",
          "name": "user",
          "type": "address"
        },
        {
          "indexed": false,
          "internalType": "bool",
          "name": "alignsWithStrategy",
          "type": "bool"
        },
        {
          "indexed": false,
          "internalType": "uint8",
          "name": "rating",
          "type": "uint8"
        },
        {
          "indexed": false,
          "internalType": "string",
          "name": "comment",
          "type": "string"
        },
        {
          "indexed": false,
          "internalType": "uint256",
          "name": "timestamp",
          "type": "uint256"
        }
      ],
      "name": "FeedbackSubmitted",
      "type": "event"
    },
    {
      "anonymous": false,
      "inputs": [
        {
          "indexed": true,
          "internalType": "address",
          "name": "previousOwner",
          "type": "address"
        },
        {
          "indexed": true,
          "internalType": "address",
          "name": "newOwner",
          "type": "address"
        }
      ],
      "name": "OwnershipTransferred",
      "type": "event"
    },
    {
      "anonymous": false,
      "inputs": [
        {
          "indexed": true,
          "internalType": "string",
          "name": "modelHash",
          "type": "string"
        },
        {
          "indexed": false,
          "internalType": "uint256",
          "name": "additionalStake",
          "type": "uint256"
        }
      ],
      "name": "StakeIncreased",
      "type": "event"
    },
    {
      "anonymous": false,
      "inputs": [
        {
          "indexed": true,
          "internalType": "string",
          "name": "modelHash",
          "type": "string"
        },
        {
          "indexed": false,
          "internalType": "string",
          "name": "newStrategyHash",
          "type": "string"
        }
      ],
      "name": "StrategyUpdated",
      "type": "event"
    },
    {
      "anonymous": false,
      "inputs": [
        {
          "indexed": true,
          "internalType": "string",
          "name": "modelHash",
          "type": "string"
        },
        {
          "indexed": false,
          "internalType": "address",
          "name": "voter",
          "type": "address"
        },
        {
          "indexed": false,
          "internalType": "bool",
          "name": "support",
          "type": "bool"
        },
        {
          "indexed": false,
          "internalType": "uint256",
          "name": "stake",
          "type": "uint256"
        }
      ],
      "name": "VoteCast",
      "type": "event"
    },
    {
      "inputs": [],
      "name": "CHALLENGE_PERIOD",
      "outputs": [
        {
          "internalType": "uint256",
          "name": "",
          "type": "uint256"
        }
      ],
      "stateMutability": "view",
      "type": "function"
    },
    {
      "inputs": [],
      "name": "FEEDBACK_COOLDOWN",
      "outputs": [
        {
          "internalType": "uint256",
          "name": "",
          "type": "uint256"
        }
      ],
      "stateMutability": "view",
      "type": "function"
    },
    {
      "inputs": [],
      "name": "MIN_STAKE_AMOUNT",
      "outputs": [
        {
          "internalType": "uint256",
          "name": "",
          "type": "uint256"
        }
      ],
      "stateMutability": "view",
      "type": "function"
    },
    {
      "inputs": [],
      "name": "REWARD_PERCENTAGE",
      "outputs": [
        {
          "internalType": "uint256",
          "name": "",
          "type": "uint256"
        }
      ],
      "stateMutability": "view",
      "type": "function"
    },
    {
      "inputs": [
        {
          "internalType": "string",
          "name": "",
          "type": "string"
        }
      ],
      "name": "agentStrategies",
      "outputs": [
        {
          "internalType": "string",
          "name": "",
          "type": "string"
        }
      ],
      "stateMutability": "view",
      "type": "function"
    },
    {
      "inputs": [
        {
          "internalType": "string",
          "name": "",
          "type": "string"
        }
      ],
      "name": "aiAgents",
      "outputs": [
        {
          "internalType": "address",
          "name": "owner",
          "type": "address"
        },
        {
          "internalType": "string",
          "name": "modelHash",
          "type": "string"
        },
        {
          "internalType": "string",
          "name": "metadata",
          "type": "string"
        },
        {
          "internalType": "uint256",
          "name": "stake",
          "type": "uint256"
        },
        {
          "internalType": "bool",
          "name": "isListed",
          "type": "bool"
        },
        {
          "internalType": "uint256",
          "name": "challengeEndTime",
          "type": "uint256"
        },
        {
          "internalType": "address",
          "name": "challenger",
          "type": "address"
        },
        {
          "internalType": "uint256",
          "name": "challengeStake",
          "type": "uint256"
        },
        {
          "internalType": "uint256",
          "name": "votesFor",
          "type": "uint256"
        },
        {
          "internalType": "uint256",
          "name": "votesAgainst",
          "type": "uint256"
        },
        {
          "internalType": "uint256",
          "name": "totalVoterStakes",
          "type": "uint256"
        },
        {
          "internalType": "string",
          "name": "initialStrategy",
          "type": "string"
        },
        {
          "internalType": "uint256",
          "name": "totalRatingPoints",
          "type": "uint256"
        },
        {
          "internalType": "uint256",
          "name": "totalFeedbacks",
          "type": "uint256"
        },
        {
          "internalType": "uint256",
          "name": "positiveAlignments",
          "type": "uint256"
        }
      ],
      "stateMutability": "view",
      "type": "function"
    },
    {
      "inputs": [
        {
          "internalType": "string",
          "name": "modelHash",
          "type": "string"
        },
        {
          "internalType": "uint256",
          "name": "stake",
          "type": "uint256"
        }
      ],
      "name": "challengeAgent",
      "outputs": [],
      "stateMutability": "nonpayable",
      "type": "function"
    },
    {
      "inputs": [
        {
          "internalType": "string",
          "name": "modelHash",
          "type": "string"
        }
      ],
      "name": "getAgent",
      "outputs": [
        {
          "internalType": "address",
          "name": "owner",
          "type": "address"
        },
        {
          "internalType": "string",
          "name": "metadata",
          "type": "string"
        },
        {
          "internalType": "uint256",
          "name": "stake",
          "type": "uint256"
        },
        {
          "internalType": "bool",
          "name": "isListed",
          "type": "bool"
        },
        {
          "internalType": "uint256",
          "name": "challengeEndTime",
          "type": "uint256"
        },
        {
          "internalType": "address",
          "name": "challenger",
          "type": "address"
        },
        {
          "internalType": "uint256",
          "name": "challengeStake",
          "type": "uint256"
        },
        {
          "internalType": "uint256",
          "name": "votesFor",
          "type": "uint256"
        },
        {
          "internalType": "uint256",
          "name": "votesAgainst",
          "type": "uint256"
        }
      ],
      "stateMutability": "view",
      "type": "function"
    },
    {
      "inputs": [
        {
          "internalType": "string",
          "name": "modelHash",
          "type": "string"
        }
      ],
      "name": "getAgentStats",
      "outputs": [
        {
          "internalType": "uint256",
          "name": "totalFeedbacks",
          "type": "uint256"
        },
        {
          "internalType": "uint256",
          "name": "positiveAlignments",
          "type": "uint256"
        },
        {
          "internalType": "uint256",
          "name": "averageRating",
          "type": "uint256"
        }
      ],
      "stateMutability": "view",
      "type": "function"
    },
    {
      "inputs": [
        {
          "internalType": "string",
          "name": "modelHash",
          "type": "string"
        }
      ],
      "name": "getAgentStrategy",
      "outputs": [
        {
          "internalType": "string",
          "name": "",
          "type": "string"
        }
      ],
      "stateMutability": "view",
      "type": "function"
    },
    {
      "inputs": [
        {
          "internalType": "string",
          "name": "",
          "type": "string"
        },
        {
          "internalType": "address",
          "name": "",
          "type": "address"
        }
      ],
      "name": "hasVoted",
      "outputs": [
        {
          "internalType": "bool",
          "name": "",
          "type": "bool"
        }
      ],
      "stateMutability": "view",
      "type": "function"
    },
    {
      "inputs": [
        {
          "internalType": "string",
          "name": "modelHash",
          "type": "string"
        },
        {
          "internalType": "uint256",
          "name": "additionalStake",
          "type": "uint256"
        }
      ],
      "name": "increaseStake",
      "outputs": [],
      "stateMutability": "nonpayable",
      "type": "function"
    },
    {
      "inputs": [
        {
          "internalType": "string",
          "name": "",
          "type": "string"
        },
        {
          "internalType": "address",
          "name": "",
          "type": "address"
        }
      ],
      "name": "lastFeedbackTime",
      "outputs": [
        {
          "internalType": "uint256",
          "name": "",
          "type": "uint256"
        }
      ],
      "stateMutability": "view",
      "type": "function"
    },
    {
      "inputs": [],
      "name": "musicToken",
      "outputs": [
        {
          "internalType": "contract IERC20",
          "name": "",
          "type": "address"
        }
      ],
      "stateMutability": "view",
      "type": "function"
    },
    {
      "inputs": [],
      "name": "owner",
      "outputs": [
        {
          "internalType": "address",
          "name": "",
          "type": "address"
        }
      ],
      "stateMutability": "view",
      "type": "function"
    },
    {
      "inputs": [],
      "name": "renounceOwnership",
      "outputs": [],
      "stateMutability": "nonpayable",
      "type": "function"
    },
    {
      "inputs": [
        {
          "internalType": "string",
          "name": "modelHash",
          "type": "string"
        }
      ],
      "name": "resolveChallenge",
      "outputs": [],
      "stateMutability": "nonpayable",
      "type": "function"
    },
    {
      "inputs": [
        {
          "internalType": "string",
          "name": "modelHash",
          "type": "string"
        },
        {
          "internalType": "string",
          "name": "metadata",
          "type": "string"
        },
        {
          "internalType": "string",
          "name": "initialStrategy",
          "type": "string"
        },
        {
          "internalType": "uint256",
          "name": "stake",
          "type": "uint256"
        }
      ],
      "name": "submitAgent",
      "outputs": [],
      "stateMutability": "nonpayable",
      "type": "function"
    },
    {
      "inputs": [
        {
          "internalType": "string",
          "name": "modelHash",
          "type": "string"
        },
        {
          "internalType": "bool",
          "name": "alignsWithStrategy",
          "type": "bool"
        },
        {
          "internalType": "uint8",
          "name": "rating",
          "type": "uint8"
        },
        {
          "internalType": "string",
          "name": "comment",
          "type": "string"
        }
      ],
      "name": "submitFeedback",
      "outputs": [],
      "stateMutability": "nonpayable",
      "type": "function"
    },
    {
      "inputs": [
        {
          "internalType": "address",
          "name": "newOwner",
          "type": "address"
        }
      ],
      "name": "transferOwnership",
      "outputs": [],
      "stateMutability": "nonpayable",
      "type": "function"
    },
    {
      "inputs": [
        {
          "internalType": "string",
          "name": "modelHash",
          "type": "string"
        },
        {
          "internalType": "string",
          "name": "strategyHash",
          "type": "string"
        }
      ],
      "name": "updateAgentStrategy",
      "outputs": [],
      "stateMutability": "nonpayable",
      "type": "function"
    },
    {
      "inputs": [
        {
          "internalType": "string",
          "name": "modelHash",
          "type": "string"
        },
        {
          "internalType": "bool",
          "name": "support",
          "type": "bool"
        },
        {
          "internalType": "uint256",
          "name": "stake",
          "type": "uint256"
        }
      ],
      "name": "vote",
      "outputs": [],
      "stateMutability": "nonpayable",
      "type": "function"
    },
    {
      "inputs": [
        {
          "internalType": "string",
          "name": "",
          "type": "string"
        },
        {
          "internalType": "address",
          "name": "",
          "type": "address"
        }
      ],
      "name": "voterStakes",
      "outputs": [
        {
          "internalType": "uint256",
          "name": "",
          "type": "uint256"
        }
      ],
      "stateMutability": "view",
      "type": "function"
    }
  ],
  "transactionHash": "0xc09b36508ef37144a703baaae3b859c9b7bf132505d9cac5c2f7a3686d3dc435",
  "args": [
    "0x31A307fC55979632382FE6E5D71cAea482A18611"
  ],
  "numDeployments": 1,
  "solcInputHash": "5e9b2ce44dca6a6ef69002d735d2418e",
  "bytecode": "0x6080346100ab57601f61286238819003918201601f19168301916001600160401b038311848410176100b0578084926020946040528339810103126100ab57516001600160a01b0390818116908190036100ab5760005460018060a01b0319903382821617600055604051933391167f8be0079c531659141344cd1fd0a4f28419497f9722a3daafe3b4186f6b6457e0600080a360018055600254161760025561279b90816100c78239f35b600080fd5b634e487b7160e01b600052604160045260246000fdfe6080604052600436101561001257600080fd5b60003560e01c80630650491c1461203357806327ed71881461200f578063316db10814611e2c578063715018a614611dd3578063794464e914611d075780638da5cb5b14611cde5780638e517fc214611c5e5780639477cdc614611cc05780639689b1a614611c5e578063972072a2146116d75780639860e3451461162e5780639af06cd9146115ed578063a892e2d314610c03578063b6b00b6214610bc7578063bdce23ed14610953578063c3a079ed14610935578063c3bb929f146106e7578063d0e5b9e6146103cb578063d149bb131461027a578063e83aceac14610229578063eb3c79da14610200578063f2fde38b1461013a5763fc72b1ed1461011957600080fd5b3461013557600036600319011261013557602060405160468152f35b600080fd5b34610135576020366003190112610135576004356001600160a01b038181169182900361013557610169612421565b81156101ac57600054826001600160601b0360a01b821617600055167f8be0079c531659141344cd1fd0a4f28419497f9722a3daafe3b4186f6b6457e0600080a3005b60405162461bcd60e51b815260206004820152602660248201527f4f776e61626c653a206e6577206f776e657220697320746865207a65726f206160448201526564647265737360d01b6064820152608490fd5b34610135576000366003190112610135576002546040516001600160a01b039091168152602090f35b3461013557602061025161023c366123d1565b929081604051938285809451938492016122a9565b810160058152030190209060018060a01b03166000526020526020604060002054604051908152f35b34610135576020366003190112610135576004356001600160401b038111610135576102aa903690600401612222565b60405181818093516020819301916102c1926122a9565b600390820190815203602001902080546001600160a01b039081166102e86001840161232b565b916102f56002850161232b565b93600381015491600482015460ff169360058301549160068401541660078401546008850154600986015491600a87015493600d88016103349061232b565b96600e8901549a600f8a015499601001549a6040519e8f9e8f9a8b526101e08060208d01528b01610364916122cc565b8a810360408c0152610375916122cc565b9860600152151560808d015260a08c015260c08b015260e08a01526101008901526101208801526101408701528581036101608701526103b4916122cc565b926101808501526101a08401526101c08301520390f35b34610135576060366003190112610135576004356001600160401b038111610135576103fb903690600401612222565b610403612412565b9060443561040f612533565b6040519282519160209485818187019561042a8183896122a9565b81016003815203019020600581015480156106ac5742101561066e576040518681875161045881838a6122a9565b8101600481520301902033600052865260ff604060002054166106395781156105fb576002546040516323b872dd60e01b81523360048201523060248201526044810184905295908790879060649082906000906001600160a01b03165af19182156105ef5787606096600a610569937f8f939c0e8da82099bc9be68995da582362fa8d3032227846326c305b0f2d2e379a610585976105c2575b50881561059f57600881016105098982546125c8565b905561051833600b8301612603565b016105248782546125c8565b9055604051828186516105388183876122a9565b810160048152030190203360005282526040600020600160ff198254161790556040518093819286519283916122a9565b8101600581520301902033600052875282604060002055612513565b94604051923384521515908301526040820152a260018055005b600981016105ae8982546125c8565b90556105bd33600c8301612603565b610518565b6105e190853d87116105e8575b6105d98183612201565b810190612479565b508c6104f3565b503d6105cf565b6040513d6000823e3d90fd5b60405162461bcd60e51b81526004810187905260166024820152755374616b65206d75737420626520706f73697469766560501b6044820152606490fd5b60405162461bcd60e51b815260048101879052600d60248201526c105b1c9958591e481d9bdd1959609a1b6044820152606490fd5b60405162461bcd60e51b815260048101879052601660248201527510da185b1b195b99d9481c195c9a5bd908195b99195960521b6044820152606490fd5b60405162461bcd60e51b81526004810188905260136024820152724e6f20616374697665206368616c6c656e676560681b6044820152606490fd5b34610135576040366003190112610135576001600160401b0360043581811161013557610718903690600401612222565b60243582811161013557610730903690600401612222565b60405192825161076360ff60046020978881818a019661075181838a6122a9565b81016003815203019020015416612589565b6000546001600160a01b031633036108e4578461078b916040518093819288519283916122a9565b810160068152030190209082519081116108ce576107a982546122f1565b601f8111610893575b5084601f821160011461081b57918160008051602061274683398151915295926107f694600091610810575b508160011b916000199060031b1c1916179055612513565b9261080b6040519282849384528301906122cc565b0390a2005b9050850151886107de565b601f1982169083600052866000209160005b8882821061087d575050926107f6949260019282600080516020612746833981519152999610610864575b5050811b019055612513565b87015160001960f88460031b161c191690558880610858565b600184958293958a01518155019401920161082d565b6108be908360005286600020601f840160051c8101918885106108c4575b601f0160051c0190612491565b856107b2565b90915081906108b1565b634e487b7160e01b600052604160045260246000fd5b60405162461bcd60e51b815260048101869052602360248201527f4f6e6c7920676f7665726e616e63652063616e2075706461746520737472617460448201526265677960e81b6064820152608490fd5b346101355760003660031901126101355760206040516203f4808152f35b34610135576080366003190112610135576001600160401b0360043581811161013557610984903690600401612222565b61098c612412565b916044359060ff821680920361013557606435908111610135576109b4903690600401612222565b906109bd612533565b6040519280516109de60ff600460209788818188019661075181838a6122a9565b600183101580610bbc575b15610b805760405185818451610a008183876122a9565b81016007815203019020336000528552604060002054620151808101809111610b6a574210610b0e5791610ac97f5fa068720b0fff575600cb435c75fbf51a167ed1d1e7eb57e37d027a6fe5bcab9492610aad87610ae69660405182818651610a6a8183876122a9565b81016003815203019020600f8101610a82815461265e565b90558b600e8201610a948982546125c8565b9055610af9575b506040518093819286519283916122a9565b8101600781520301902033600052875242604060002055612513565b9460405196151587528601526080604086015260808501906122cc565b924260608201528033940390a360018055005b601001610b06815461265e565b90558b610a9b565b60405162461bcd60e51b815260048101869052602e60248201527f506c656173652077616974206265666f7265207375626d697474696e6720616e60448201526d6f7468657220666565646261636b60901b6064820152608490fd5b634e487b7160e01b600052601160045260246000fd5b60405162461bcd60e51b8152600481018690526014602482015273496e76616c696420726174696e672072616e676560601b6044820152606490fd5b5060058311156109e9565b34610135576020610bda61023c366123d1565b810160078152030190209060018060a01b03166000526020526020604060002054604051908152f35b34610135576080366003190112610135576004356001600160401b03811161013557610c33903690600401612222565b6024356001600160401b03811161013557610c52903690600401612222565b906044356001600160401b03811161013557610c72903690600401612222565b91610c7b612533565b68056bc75e2d63100000606435106115b35760ff60046040516020818651610ca68183858b016122a9565b6003818301528101030190200154166115775780511561153e578251156114f9576002546040516323b872dd60e01b81523360048201523060248201526064803560448301529091602091839182906000906001600160a01b03165af180156105ef576114da575b50604051610d1b816121cb565b60008152604051610d2b816121cb565b6000815260405191826102208101106001600160401b03610220850111176108ce576102208301604052338352846020840152836040840152606435606084015260016080840152600060a0840152600060c0840152600060e0840152600061010084015260006101208401526000610140840152610160830152610180820152836101a082015260006101c082015260006101e082015260006102008201526040516020818551610de08183858a016122a9565b810160038152030190209060018060a01b038151166001600160601b0360a01b83541617825560208101518051906001600160401b0382116108ce578190610e2b60018601546122f1565b601f81116114a5575b50602090601f831160011461143357600092611428575b50508160011b916000199060031b1c19161760018301555b60408101518051906001600160401b0382116108ce578190610e8860028601546122f1565b601f81116113f3575b50602090601f831160011461138157600092611376575b50508160011b916000199060031b1c19161760028301555b60608101516003830155600482016080820151151560ff8019835416911617905560a081015160058301556006820160018060a01b0360c0830151166001600160601b0360a01b82541617905560e0810151600783015561010081015160088301556101208101516009830155610140810151600a8301556101608101518051906001600160401b0382116108ce576020600b850191610f6084846124df565b0190600052602060002060005b83811061135957505050506101808101518051906001600160401b0382116108ce576020600c850191610fa084846124df565b0190600052602060002060005b83811061133c57505050506101a08101518051906001600160401b0382116108ce57610fdc600d8501546122f1565b601f8111611307575b50602090601f83116001146112915791806010949261020094600092611286575b50508160011b916000199060031b1c191617600d8501555b6101c0810151600e8501556101e0810151600f8501550151910155604051602081845161104e81838589016122a9565b8101600681520301902083516001600160401b0381116108ce5761107282546122f1565b601f8111611254575b506020601f82116001146111b35761118261119f9461118a948460008051602061274683398151915298957f0f0edca2e192c0b6c3286bb05c5742ee74c6acb70650dbf52bf3a7d71e8a3d79956000916111a8575b508160011b916000199060031b1c19161790555b611119846040516110f4816121e6565b60138152724167656e74207375626d69747465643a20257360681b60208201526126dd565b61114f88604051611129816121e6565b6014815273496e697469616c2073747261746567793a20257360601b60208201526126dd565b6040519182916080835261116660808401876122cc565b90336020850152606435604085015283820360608501526122cc565b0390a1612513565b926040519182916020835260208301906122cc565b0390a260018055005b90508a01518b6110d0565b601f198216908360005260206000209160005b81811061123c57509461118a946001857f0f0edca2e192c0b6c3286bb05c5742ee74c6acb70650dbf52bf3a7d71e8a3d7995611182956000805160206127468339815191529b9861119f9b10611223575b5050811b0190556110e4565b8c015160001960f88460031b161c191690558b80611217565b9192602060018192868c0151815501940192016111c6565b61128090836000526020600020601f840160051c810191602085106108c457601f0160051c0190612491565b8561107b565b015190508980611006565b90600d850160005260206000209160005b601f19851681106112ef575092601094926001926102009583601f198116106112d6575b505050811b01600d85015561101e565b015160001960f88460031b161c191690558980806112c6565b919260206001819286850151815501940192016112a2565b61133690600d86016000526020600020601f850160051c810191602086106108c457601f0160051c0190612491565b87610fe5565b82516001600160a01b031681830155602090920191600101610fad565b82516001600160a01b031681830155602090920191600101610f6d565b015190508780610ea8565b9250600285016000526020600020906000935b601f19841685106113d8576001945083601f198116106113bf575b505050811b016002830155610ec0565b015160001960f88460031b161c191690558780806113af565b81810151835560209485019460019093019290910190611394565b61142290600287016000526020600020601f850160051c810191602086106108c457601f0160051c0190612491565b88610e91565b015190508780610e4b565b9250600185016000526020600020906000935b601f198416851061148a576001945083601f19811610611471575b505050811b016001830155610e63565b015160001960f88460031b161c19169055878080611461565b81810151835560209485019460019093019290910190611446565b6114d490600187016000526020600020601f850160051c810191602086106108c457601f0160051c0190612491565b88610e34565b6114f29060203d6020116105e8576105d98183612201565b5083610d0e565b60405162461bcd60e51b815260206004820152601960248201527f496e697469616c207374726174656779207265717569726564000000000000006044820152606490fd5b60405162461bcd60e51b815260206004820152601160248201527013595d1859185d18481c995c5d5a5c9959607a1b6044820152606490fd5b60405162461bcd60e51b81526020600482015260146024820152734167656e7420616c72656164792065786973747360601b6044820152606490fd5b60405162461bcd60e51b8152602060048201526012602482015271496e73756666696369656e74207374616b6560701b6044820152606490fd5b3461013557602061160061023c366123d1565b810160048152030190209060018060a01b0316600052602052602060ff604060002054166040519015158152f35b34610135576020366003190112610135576004356001600160401b038111610135576020611663611676923690600401612222565b81604051938285809451938492016122a9565b600390820190815203019020600f81015480156116ca57600e82015491606483029280840460641490151715610b6a5760106116b48360609561263e565b915b015460405192835260208301526040820152f35b60609160106000916116b6565b34610135576020366003190112610135576004356001600160401b03811161013557611707903690600401612222565b61170f612533565b604051602081835161172481838588016122a9565b8101600381520301902060058101548015611c23574210611bde5760098101546008820154109061175e60038201546007830154906125c8565b906046820282810460461483151715610b6a578260648204810311610b6a578315611a4757600254600683015460405163a9059cbb60e01b81526001600160a01b0391821660048201526064840460248201529160209183916044918391600091165af180156105ef57611a28575b5060405160208187516117e38183858c016122a9565b8101600381520301902060098101549081611928575b505060048201805460ff191690559192915b600b82019260005b845481101561184f578061184561182d61184a93886125d5565b905460039190911b1c6001600160a01b03168961266d565b61265e565b611813565b5085949293600c8501939060005b8554811015611894578061184561187761188f93896125d5565b905460039190911b1c6001600160a01b03168a61266d565b61185d565b50611909876119047f5d8d2094010c42d169641988d8bab4a6cf7e371ba43d34c523aa68c7e33ea22a976118ff6064956000600a60609b9d826005820155600681016001600160601b0360a01b815416905582600782015582600882015582600982015501556124bb565b6124bb565b612513565b956040519315845281810460208501520490036040820152a260018055005b9093929460005b600c830154811015611a1b5761194881600c85016125d5565b60018060a01b0391549060031b1c16906040516020818161196f8d838151938492016122a9565b810160058152030190208260005260205261199d876119986064880489036040600020546124a8565b61263e565b91826119b4575b506119af915061265e565b61192f565b60025460405163a9059cbb60e01b81526001600160a01b039283166004820152602481019490945260209184916044918391600091165af19182156105ef576119af92156119a457611a149060203d6020116105e8576105d98183612201565b50896119a4565b50949293505085806117f9565b611a409060203d6020116105e8576105d98183612201565b50856117cd565b600254825460405163a9059cbb60e01b81526001600160a01b0391821660048201526064840460248201529160209183916044918391600091165af180156105ef57611bbf575b506040516020818751611aa48183858c016122a9565b8101600381520301902060088101549081611ac4575b505092919261180b565b9093929460005b600b830154811015611bb257611ae481600b85016125d5565b60018060a01b0391549060031b1c169060405160208181611b0b8d838151938492016122a9565b8101600581520301902082600052602052611b34876119986064880489036040600020546124a8565b9182611b4b575b50611b46915061265e565b611acb565b60025460405163a9059cbb60e01b81526001600160a01b039283166004820152602481019490945260209184916044918391600091165af19182156105ef57611b469215611b3b57611bab9060203d6020116105e8576105d98183612201565b5089611b3b565b5094929350508580611aba565b611bd79060203d6020116105e8576105d98183612201565b5085611a8e565b60405162461bcd60e51b815260206004820152601a60248201527f4368616c6c656e676520706572696f64206e6f7420656e6465640000000000006044820152606490fd5b60405162461bcd60e51b81526020600482015260136024820152724e6f206368616c6c656e67652065786973747360681b6044820152606490fd5b34610135576020366003190112610135576004356001600160401b03811161013557611ca8611c996020611663611cbc943690600401612222565b8101600681520301902061232b565b6040519182916020835260208301906122cc565b0390f35b34610135576000366003190112610135576020604051620151808152f35b34610135576000366003190112610135576000546040516001600160a01b039091168152602090f35b34610135576020366003190112610135576004356001600160401b038111610135576020611663611d3c923690600401612222565b8101600381520301902060018060a01b0390818154169060038101549060ff60048201541693600582015490600683015416600783015490600884015492611d8b60026009870154960161232b565b97611da8604051998a998a526101208060208c01528a01906122cc565b96604089015215156060880152608087015260a086015260c085015260e08401526101008301520390f35b3461013557600036600319011261013557611dec612421565b600080546001600160a01b0319811682556001600160a01b03167f8be0079c531659141344cd1fd0a4f28419497f9722a3daafe3b4186f6b6457e08280a3005b3461013557611e3a36612278565b90611e43612533565b604051815190611e6460ff600460209384818189019761075181838b6122a9565b68056bc75e2d631000008410611fcb57600560405182818651611e888183896122a9565b810160038152030190200154611f92576002546040516323b872dd60e01b81523360048201523060248201526044810186905292908290849060649082906000906001600160a01b03165af19283156105ef57611ef593611f7557506040518093819286519283916122a9565b8101600381520301902060068101336001600160601b0360a01b8254161790558260078201556203f480420190814211610b6a577fcbde0a5ea91f4bccc6a7e2d42767f017c2bb5c3b0448688d74122bb9029df4369261119f926005611f5c930155612513565b6040805133815260208101959095529093918291820190565b611f8b90833d85116105e8576105d98183612201565b5085610a9b565b6064906040519062461bcd60e51b825260048201526012602482015271105b1c9958591e4818da185b1b195b99d95960721b6044820152fd5b6064906040519062461bcd60e51b82526004820152601c60248201527f496e73756666696369656e74206368616c6c656e6765207374616b65000000006044820152fd5b3461013557600036600319011261013557602060405168056bc75e2d631000008152f35b346101355761204136612278565b9061204a612533565b604051808251602092816120628593838589016122a9565b810160038152030190209161207d60ff600485015416612589565b82546001600160a01b039081163303612194576005840154612140576002546040516323b872dd60e01b8152336004820152306024820152604481018790529291849184916064918391600091165af180156105ef577f70f290ad78e67aaeac597cb6b5c277a925608ad638170c7608f9f212841b46c79461211593600392612123575b500161210e8682546125c8565b9055612513565b92604051908152a260018055005b61213990863d88116105e8576105d98183612201565b5087612101565b60405162461bcd60e51b815260048101849052602660248201527f43616e6e6f7420696e637265617365207374616b6520647572696e67206368616044820152656c6c656e676560d01b6064820152608490fd5b60405162461bcd60e51b815260048101849052600f60248201526e2737ba1030b3b2b73a1037bbb732b960891b6044820152606490fd5b602081019081106001600160401b038211176108ce57604052565b604081019081106001600160401b038211176108ce57604052565b90601f801991011681019081106001600160401b038211176108ce57604052565b81601f82011215610135578035906001600160401b0382116108ce5760405192612256601f8401601f191660200185612201565b8284526020838301011161013557816000926020809301838601378301015290565b604060031982011261013557600435906001600160401b038211610135576122a291600401612222565b9060243590565b60005b8381106122bc5750506000910152565b81810151838201526020016122ac565b906020916122e5815180928185528580860191016122a9565b601f01601f1916010190565b90600182811c92168015612321575b602083101461230b57565b634e487b7160e01b600052602260045260246000fd5b91607f1691612300565b906040519182600082549261233f846122f1565b9081845260019485811690816000146123ae575060011461236b575b505061236992500383612201565b565b9093915060005260209081600020936000915b8183106123965750506123699350820101388061235b565b8554888401850152948501948794509183019161237e565b91505061236994506020925060ff191682840152151560051b820101388061235b565b604060031982011261013557600435906001600160401b038211610135576123fb91600401612222565b906024356001600160a01b03811681036101355790565b60243590811515820361013557565b6000546001600160a01b0316330361243557565b606460405162461bcd60e51b815260206004820152602060248201527f4f776e61626c653a2063616c6c6572206973206e6f7420746865206f776e65726044820152fd5b90816020910312610135575180151581036101355790565b81811061249c575050565b60008155600101612491565b81810292918115918404141715610b6a57565b805460008255806124ca575050565b61236991600052602060002090810190612491565b90600160401b81116108ce578154908083558181106124fd57505050565b6123699260005260206000209182019101612491565b61252b906020604051928284809451938492016122a9565b810103902090565b600260015414612544576002600155565b60405162461bcd60e51b815260206004820152601f60248201527f5265656e7472616e637947756172643a207265656e7472616e742063616c6c006044820152606490fd5b1561259057565b60405162461bcd60e51b815260206004820152601060248201526f1059d95b9d081b9bdd081b1a5cdd195960821b6044820152606490fd5b91908201809211610b6a57565b80548210156125ed5760005260206000200190600090565b634e487b7160e01b600052603260045260246000fd5b8054600160401b8110156108ce57612620916001820181556125d5565b819291549060031b9160018060a01b03809116831b921b1916179055565b8115612648570490565b634e487b7160e01b600052601260045260246000fd5b6000198114610b6a5760010190565b60206126c3916040519080519183818184019461268b8183886122a9565b810160048152030190209460018060a01b031694856000528352604060002060ff1981541690556040519384928392519283916122a9565b810160058152030190209060005260205260006040812055565b6000919061272461273284936040519283916127126020840196634b5c427760e01b88526040602486015260648501906122cc565b838103602319016044850152906122cc565b03601f198101835282612201565b51906a636f6e736f6c652e6c6f675afa5056fe9a5ad21e6f8a2a4c177c4e30129c29600e7d2f295a5e89ea1825bd992781f429a26469706673582212209eb46b68c38e432d7f36976072ed7f1f2971239594232b49fbad4e677b26bf3964736f6c63430008140033",
  "devdoc": {
    "details": "A decentralized registry for AI music recommendation agents",
    "kind": "dev",
    "methods": {
      "owner()": {
        "details": "Returns the address of the current owner."
      },
      "renounceOwnership()": {
        "details": "Leaves the contract without owner. It will not be possible to call `onlyOwner` functions. Can only be called by the current owner. NOTE: Renouncing ownership will leave the contract without an owner, thereby disabling any functionality that is only available to the owner."
      },
      "transferOwnership(address)": {
        "details": "Transfers ownership of the contract to a new account (`newOwner`). Can only be called by the current owner."
      }
    },
    "title": "AIAgentRegistry",
    "version": 1
  },
  "userdoc": {
    "kind": "user",
    "methods": {},
    "version": 1
  },
  "storageLayout": {
    "storage": [
      {
        "astId": 7,
        "contract": "contracts/AIAgentRegistry.sol:AIAgentRegistry",
        "label": "_owner",
        "offset": 0,
        "slot": "0",
        "type": "t_address"
      },
      {
        "astId": 123,
        "contract": "contracts/AIAgentRegistry.sol:AIAgentRegistry",
        "label": "_status",
        "offset": 0,
        "slot": "1",
        "type": "t_uint256"
      },
      {
        "astId": 904,
        "contract": "contracts/AIAgentRegistry.sol:AIAgentRegistry",
        "label": "musicToken",
        "offset": 0,
        "slot": "2",
        "type": "t_contract(IERC20)842"
      },
      {
        "astId": 973,
        "contract": "contracts/AIAgentRegistry.sol:AIAgentRegistry",
        "label": "aiAgents",
        "offset": 0,
        "slot": "3",
        "type": "t_mapping(t_string_memory_ptr,t_struct(AIAgent)954_storage)"
      },
      {
        "astId": 979,
        "contract": "contracts/AIAgentRegistry.sol:AIAgentRegistry",
        "label": "hasVoted",
        "offset": 0,
        "slot": "4",
        "type": "t_mapping(t_string_memory_ptr,t_mapping(t_address,t_bool))"
      },
      {
        "astId": 985,
        "contract": "contracts/AIAgentRegistry.sol:AIAgentRegistry",
        "label": "voterStakes",
        "offset": 0,
        "slot": "5",
        "type": "t_mapping(t_string_memory_ptr,t_mapping(t_address,t_uint256))"
      },
      {
        "astId": 989,
        "contract": "contracts/AIAgentRegistry.sol:AIAgentRegistry",
        "label": "agentStrategies",
        "offset": 0,
        "slot": "6",
        "type": "t_mapping(t_string_memory_ptr,t_string_storage)"
      },
      {
        "astId": 995,
        "contract": "contracts/AIAgentRegistry.sol:AIAgentRegistry",
        "label": "lastFeedbackTime",
        "offset": 0,
        "slot": "7",
        "type": "t_mapping(t_string_memory_ptr,t_mapping(t_address,t_uint256))"
      }
    ],
    "types": {
      "t_address": {
        "encoding": "inplace",
        "label": "address",
        "numberOfBytes": "20"
      },
      "t_array(t_address)dyn_storage": {
        "base": "t_address",
        "encoding": "dynamic_array",
        "label": "address[]",
        "numberOfBytes": "32"
      },
      "t_bool": {
        "encoding": "inplace",
        "label": "bool",
        "numberOfBytes": "1"
      },
      "t_contract(IERC20)842": {
        "encoding": "inplace",
        "label": "contract IERC20",
        "numberOfBytes": "20"
      },
      "t_mapping(t_address,t_bool)": {
        "encoding": "mapping",
        "key": "t_address",
        "label": "mapping(address => bool)",
        "numberOfBytes": "32",
        "value": "t_bool"
      },
      "t_mapping(t_address,t_uint256)": {
        "encoding": "mapping",
        "key": "t_address",
        "label": "mapping(address => uint256)",
        "numberOfBytes": "32",
        "value": "t_uint256"
      },
      "t_mapping(t_string_memory_ptr,t_mapping(t_address,t_bool))": {
        "encoding": "mapping",
        "key": "t_string_memory_ptr",
        "label": "mapping(string => mapping(address => bool))",
        "numberOfBytes": "32",
        "value": "t_mapping(t_address,t_bool)"
      },
      "t_mapping(t_string_memory_ptr,t_mapping(t_address,t_uint256))": {
        "encoding": "mapping",
        "key": "t_string_memory_ptr",
        "label": "mapping(string => mapping(address => uint256))",
        "numberOfBytes": "32",
        "value": "t_mapping(t_address,t_uint256)"
      },
      "t_mapping(t_string_memory_ptr,t_string_storage)": {
        "encoding": "mapping",
        "key": "t_string_memory_ptr",
        "label": "mapping(string => string)",
        "numberOfBytes": "32",
        "value": "t_string_storage"
      },
      "t_mapping(t_string_memory_ptr,t_struct(AIAgent)954_storage)": {
        "encoding": "mapping",
        "key": "t_string_memory_ptr",
        "label": "mapping(string => struct AIAgentRegistry.AIAgent)",
        "numberOfBytes": "32",
        "value": "t_struct(AIAgent)954_storage"
      },
      "t_string_memory_ptr": {
        "encoding": "bytes",
        "label": "string",
        "numberOfBytes": "32"
      },
      "t_string_storage": {
        "encoding": "bytes",
        "label": "string",
        "numberOfBytes": "32"
      },
      "t_struct(AIAgent)954_storage": {
        "encoding": "inplace",
        "label": "struct AIAgentRegistry.AIAgent",
        "members": [
          {
            "astId": 919,
            "contract": "contracts/AIAgentRegistry.sol:AIAgentRegistry",
            "label": "owner",
            "offset": 0,
            "slot": "0",
            "type": "t_address"
          },
          {
            "astId": 921,
            "contract": "contracts/AIAgentRegistry.sol:AIAgentRegistry",
            "label": "modelHash",
            "offset": 0,
            "slot": "1",
            "type": "t_string_storage"
          },
          {
            "astId": 923,
            "contract": "contracts/AIAgentRegistry.sol:AIAgentRegistry",
            "label": "metadata",
            "offset": 0,
            "slot": "2",
            "type": "t_string_storage"
          },
          {
            "astId": 925,
            "contract": "contracts/AIAgentRegistry.sol:AIAgentRegistry",
            "label": "stake",
            "offset": 0,
            "slot": "3",
            "type": "t_uint256"
          },
          {
            "astId": 927,
            "contract": "contracts/AIAgentRegistry.sol:AIAgentRegistry",
            "label": "isListed",
            "offset": 0,
            "slot": "4",
            "type": "t_bool"
          },
          {
            "astId": 929,
            "contract": "contracts/AIAgentRegistry.sol:AIAgentRegistry",
            "label": "challengeEndTime",
            "offset": 0,
            "slot": "5",
            "type": "t_uint256"
          },
          {
            "astId": 931,
            "contract": "contracts/AIAgentRegistry.sol:AIAgentRegistry",
            "label": "challenger",
            "offset": 0,
            "slot": "6",
            "type": "t_address"
          },
          {
            "astId": 933,
            "contract": "contracts/AIAgentRegistry.sol:AIAgentRegistry",
            "label": "challengeStake",
            "offset": 0,
            "slot": "7",
            "type": "t_uint256"
          },
          {
            "astId": 935,
            "contract": "contracts/AIAgentRegistry.sol:AIAgentRegistry",
            "label": "votesFor",
            "offset": 0,
            "slot": "8",
            "type": "t_uint256"
          },
          {
            "astId": 937,
            "contract": "contracts/AIAgentRegistry.sol:AIAgentRegistry",
            "label": "votesAgainst",
            "offset": 0,
            "slot": "9",
            "type": "t_uint256"
          },
          {
            "astId": 939,
            "contract": "contracts/AIAgentRegistry.sol:AIAgentRegistry",
            "label": "totalVoterStakes",
            "offset": 0,
            "slot": "10",
            "type": "t_uint256"
          },
          {
            "astId": 942,
            "contract": "contracts/AIAgentRegistry.sol:AIAgentRegistry",
            "label": "supportVoters",
            "offset": 0,
            "slot": "11",
            "type": "t_array(t_address)dyn_storage"
          },
          {
            "astId": 945,
            "contract": "contracts/AIAgentRegistry.sol:AIAgentRegistry",
            "label": "againstVoters",
            "offset": 0,
            "slot": "12",
            "type": "t_array(t_address)dyn_storage"
          },
          {
            "astId": 947,
            "contract": "contracts/AIAgentRegistry.sol:AIAgentRegistry",
            "label": "initialStrategy",
            "offset": 0,
            "slot": "13",
            "type": "t_string_storage"
          },
          {
            "astId": 949,
            "contract": "contracts/AIAgentRegistry.sol:AIAgentRegistry",
            "label": "totalRatingPoints",
            "offset": 0,
            "slot": "14",
            "type": "t_uint256"
          },
          {
            "astId": 951,
            "contract": "contracts/AIAgentRegistry.sol:AIAgentRegistry",
            "label": "totalFeedbacks",
            "offset": 0,
            "slot": "15",
            "type": "t_uint256"
          },
          {
            "astId": 953,
            "contract": "contracts/AIAgentRegistry.sol:AIAgentRegistry",
            "label": "positiveAlignments",
            "offset": 0,
            "slot": "16",
            "type": "t_uint256"
          }
        ],
        "numberOfBytes": "544"
      },
      "t_uint256": {
        "encoding": "inplace",
        "label": "uint256",
        "numberOfBytes": "32"
      }
    }
  }
}