{
  "address": "0x43E39Bc12C41af967b3fCC3f8cF5a7b02e8898c2",
  "abi": [
    {
      "inputs": [
        {
          "internalType": "address",
          "name": "_musicToken",
          "type": "address"
        }
      ],
      "stateMutability": "nonpayable",
      "type": "constructor"
    },
    {
      "anonymous": false,
      "inputs": [
        {
          "indexed": true,
          "internalType": "address",
          "name": "modelAddress",
          "type": "address"
        },
        {
          "indexed": false,
          "internalType": "address",
          "name": "challenger",
          "type": "address"
        },
        {
          "indexed": false,
          "internalType": "uint256",
          "name": "stake",
          "type": "uint256"
        }
      ],
      "name": "AgentChallenged",
      "type": "event"
    },
    {
      "anonymous": false,
      "inputs": [
        {
          "indexed": false,
          "internalType": "address",
          "name": "modelAddress",
          "type": "address"
        },
        {
          "indexed": false,
          "internalType": "uint256",
          "name": "stake",
          "type": "uint256"
        },
        {
          "indexed": false,
          "internalType": "string",
          "name": "metadata",
          "type": "string"
        },
        {
          "indexed": false,
          "internalType": "string",
          "name": "strategy",
          "type": "string"
        }
      ],
      "name": "AgentSubmitted",
      "type": "event"
    },
    {
      "anonymous": false,
      "inputs": [
        {
          "indexed": true,
          "internalType": "address",
          "name": "modelAddress",
          "type": "address"
        },
        {
          "indexed": false,
          "internalType": "bool",
          "name": "accepted",
          "type": "bool"
        },
        {
          "indexed": false,
          "internalType": "uint256",
          "name": "winnerReward",
          "type": "uint256"
        },
        {
          "indexed": false,
          "internalType": "uint256",
          "name": "voterRewards",
          "type": "uint256"
        }
      ],
      "name": "ChallengeResolved",
      "type": "event"
    },
    {
      "anonymous": false,
      "inputs": [
        {
          "indexed": true,
          "internalType": "address",
          "name": "modelAddress",
          "type": "address"
        },
        {
          "indexed": false,
          "internalType": "bool",
          "name": "alignsWithStrategy",
          "type": "bool"
        },
        {
          "indexed": false,
          "internalType": "uint8",
          "name": "rating",
          "type": "uint8"
        },
        {
          "indexed": false,
          "internalType": "string",
          "name": "comment",
          "type": "string"
        },
        {
          "indexed": false,
          "internalType": "uint256",
          "name": "timestamp",
          "type": "uint256"
        }
      ],
      "name": "FeedbackSubmitted",
      "type": "event"
    },
    {
      "anonymous": false,
      "inputs": [
        {
          "indexed": true,
          "internalType": "address",
          "name": "previousOwner",
          "type": "address"
        },
        {
          "indexed": true,
          "internalType": "address",
          "name": "newOwner",
          "type": "address"
        }
      ],
      "name": "OwnershipTransferred",
      "type": "event"
    },
    {
      "anonymous": false,
      "inputs": [
        {
          "indexed": true,
          "internalType": "address",
          "name": "modelAddress",
          "type": "address"
        },
        {
          "indexed": false,
          "internalType": "uint256",
          "name": "additionalStake",
          "type": "uint256"
        }
      ],
      "name": "StakeIncreased",
      "type": "event"
    },
    {
      "anonymous": false,
      "inputs": [
        {
          "indexed": true,
          "internalType": "address",
          "name": "modelAddress",
          "type": "address"
        },
        {
          "indexed": false,
          "internalType": "string",
          "name": "newStrategy",
          "type": "string"
        }
      ],
      "name": "StrategyUpdated",
      "type": "event"
    },
    {
      "anonymous": false,
      "inputs": [
        {
          "indexed": true,
          "internalType": "address",
          "name": "modelAddress",
          "type": "address"
        },
        {
          "indexed": false,
          "internalType": "address",
          "name": "voter",
          "type": "address"
        },
        {
          "indexed": false,
          "internalType": "bool",
          "name": "support",
          "type": "bool"
        },
        {
          "indexed": false,
          "internalType": "uint256",
          "name": "stake",
          "type": "uint256"
        }
      ],
      "name": "VoteCast",
      "type": "event"
    },
    {
      "inputs": [],
      "name": "CHALLENGE_PERIOD",
      "outputs": [
        {
          "internalType": "uint256",
          "name": "",
          "type": "uint256"
        }
      ],
      "stateMutability": "view",
      "type": "function"
    },
    {
      "inputs": [],
      "name": "MIN_STAKE_AMOUNT",
      "outputs": [
        {
          "internalType": "uint256",
          "name": "",
          "type": "uint256"
        }
      ],
      "stateMutability": "view",
      "type": "function"
    },
    {
      "inputs": [],
      "name": "REWARD_PERCENTAGE",
      "outputs": [
        {
          "internalType": "uint256",
          "name": "",
          "type": "uint256"
        }
      ],
      "stateMutability": "view",
      "type": "function"
    },
    {
      "inputs": [
        {
          "internalType": "address",
          "name": "",
          "type": "address"
        }
      ],
      "name": "agentStrategies",
      "outputs": [
        {
          "internalType": "string",
          "name": "",
          "type": "string"
        }
      ],
      "stateMutability": "view",
      "type": "function"
    },
    {
      "inputs": [
        {
          "internalType": "address",
          "name": "",
          "type": "address"
        }
      ],
      "name": "aiAgents",
      "outputs": [
        {
          "internalType": "string",
          "name": "metadata",
          "type": "string"
        },
        {
          "internalType": "uint256",
          "name": "stake",
          "type": "uint256"
        },
        {
          "internalType": "bool",
          "name": "isListed",
          "type": "bool"
        },
        {
          "internalType": "uint256",
          "name": "challengeEndTime",
          "type": "uint256"
        },
        {
          "internalType": "address",
          "name": "challenger",
          "type": "address"
        },
        {
          "internalType": "uint256",
          "name": "challengeStake",
          "type": "uint256"
        },
        {
          "internalType": "uint256",
          "name": "votesFor",
          "type": "uint256"
        },
        {
          "internalType": "uint256",
          "name": "votesAgainst",
          "type": "uint256"
        },
        {
          "internalType": "uint256",
          "name": "totalVoterStakes",
          "type": "uint256"
        },
        {
          "internalType": "uint256",
          "name": "totalRatingPoints",
          "type": "uint256"
        },
        {
          "internalType": "uint256",
          "name": "totalFeedbacks",
          "type": "uint256"
        },
        {
          "internalType": "uint256",
          "name": "positiveAlignments",
          "type": "uint256"
        }
      ],
      "stateMutability": "view",
      "type": "function"
    },
    {
      "inputs": [
        {
          "internalType": "address",
          "name": "modelAddress",
          "type": "address"
        },
        {
          "internalType": "uint256",
          "name": "stake",
          "type": "uint256"
        }
      ],
      "name": "challengeAgent",
      "outputs": [],
      "stateMutability": "nonpayable",
      "type": "function"
    },
    {
      "inputs": [
        {
          "internalType": "address",
          "name": "modelAddress",
          "type": "address"
        }
      ],
      "name": "getAgent",
      "outputs": [
        {
          "internalType": "string",
          "name": "metadata",
          "type": "string"
        },
        {
          "internalType": "uint256",
          "name": "stake",
          "type": "uint256"
        },
        {
          "internalType": "bool",
          "name": "isListed",
          "type": "bool"
        },
        {
          "internalType": "uint256",
          "name": "challengeEndTime",
          "type": "uint256"
        },
        {
          "internalType": "address",
          "name": "challenger",
          "type": "address"
        },
        {
          "internalType": "uint256",
          "name": "challengeStake",
          "type": "uint256"
        },
        {
          "internalType": "uint256",
          "name": "votesFor",
          "type": "uint256"
        },
        {
          "internalType": "uint256",
          "name": "votesAgainst",
          "type": "uint256"
        }
      ],
      "stateMutability": "view",
      "type": "function"
    },
    {
      "inputs": [
        {
          "internalType": "address",
          "name": "modelAddress",
          "type": "address"
        }
      ],
      "name": "getAgentStats",
      "outputs": [
        {
          "internalType": "uint256",
          "name": "totalFeedbacks",
          "type": "uint256"
        },
        {
          "internalType": "uint256",
          "name": "positiveAlignments",
          "type": "uint256"
        },
        {
          "internalType": "uint256",
          "name": "averageRating",
          "type": "uint256"
        }
      ],
      "stateMutability": "view",
      "type": "function"
    },
    {
      "inputs": [
        {
          "internalType": "address",
          "name": "modelAddress",
          "type": "address"
        }
      ],
      "name": "getAgentStrategy",
      "outputs": [
        {
          "internalType": "string",
          "name": "",
          "type": "string"
        }
      ],
      "stateMutability": "view",
      "type": "function"
    },
    {
      "inputs": [
        {
          "internalType": "address",
          "name": "",
          "type": "address"
        },
        {
          "internalType": "address",
          "name": "",
          "type": "address"
        }
      ],
      "name": "hasVoted",
      "outputs": [
        {
          "internalType": "bool",
          "name": "",
          "type": "bool"
        }
      ],
      "stateMutability": "view",
      "type": "function"
    },
    {
      "inputs": [
        {
          "internalType": "uint256",
          "name": "additionalStake",
          "type": "uint256"
        }
      ],
      "name": "increaseStake",
      "outputs": [],
      "stateMutability": "nonpayable",
      "type": "function"
    },
    {
      "inputs": [
        {
          "internalType": "address",
          "name": "",
          "type": "address"
        },
        {
          "internalType": "address",
          "name": "",
          "type": "address"
        }
      ],
      "name": "lastFeedbackTime",
      "outputs": [
        {
          "internalType": "uint256",
          "name": "",
          "type": "uint256"
        }
      ],
      "stateMutability": "view",
      "type": "function"
    },
    {
      "inputs": [],
      "name": "musicToken",
      "outputs": [
        {
          "internalType": "contract IERC20",
          "name": "",
          "type": "address"
        }
      ],
      "stateMutability": "view",
      "type": "function"
    },
    {
      "inputs": [],
      "name": "owner",
      "outputs": [
        {
          "internalType": "address",
          "name": "",
          "type": "address"
        }
      ],
      "stateMutability": "view",
      "type": "function"
    },
    {
      "inputs": [],
      "name": "renounceOwnership",
      "outputs": [],
      "stateMutability": "nonpayable",
      "type": "function"
    },
    {
      "inputs": [
        {
          "internalType": "address",
          "name": "modelAddress",
          "type": "address"
        }
      ],
      "name": "resolveChallenge",
      "outputs": [],
      "stateMutability": "nonpayable",
      "type": "function"
    },
    {
      "inputs": [
        {
          "internalType": "string",
          "name": "metadata",
          "type": "string"
        },
        {
          "internalType": "string",
          "name": "strategy",
          "type": "string"
        },
        {
          "internalType": "uint256",
          "name": "stake",
          "type": "uint256"
        }
      ],
      "name": "submitAgent",
      "outputs": [],
      "stateMutability": "nonpayable",
      "type": "function"
    },
    {
      "inputs": [
        {
          "internalType": "bool",
          "name": "alignsWithStrategy",
          "type": "bool"
        },
        {
          "internalType": "uint8",
          "name": "rating",
          "type": "uint8"
        },
        {
          "internalType": "string",
          "name": "comment",
          "type": "string"
        }
      ],
      "name": "submitFeedback",
      "outputs": [],
      "stateMutability": "nonpayable",
      "type": "function"
    },
    {
      "inputs": [
        {
          "internalType": "address",
          "name": "newOwner",
          "type": "address"
        }
      ],
      "name": "transferOwnership",
      "outputs": [],
      "stateMutability": "nonpayable",
      "type": "function"
    },
    {
      "inputs": [
        {
          "internalType": "address",
          "name": "modelAddress",
          "type": "address"
        },
        {
          "internalType": "string",
          "name": "strategy",
          "type": "string"
        }
      ],
      "name": "updateAgentStrategy",
      "outputs": [],
      "stateMutability": "nonpayable",
      "type": "function"
    },
    {
      "inputs": [
        {
          "internalType": "address",
          "name": "modelAddress",
          "type": "address"
        },
        {
          "internalType": "bool",
          "name": "support",
          "type": "bool"
        },
        {
          "internalType": "uint256",
          "name": "stake",
          "type": "uint256"
        }
      ],
      "name": "vote",
      "outputs": [],
      "stateMutability": "nonpayable",
      "type": "function"
    },
    {
      "inputs": [
        {
          "internalType": "address",
          "name": "",
          "type": "address"
        },
        {
          "internalType": "address",
          "name": "",
          "type": "address"
        }
      ],
      "name": "voterStakes",
      "outputs": [
        {
          "internalType": "uint256",
          "name": "",
          "type": "uint256"
        }
      ],
      "stateMutability": "view",
      "type": "function"
    }
  ],
  "transactionHash": "0x2b5b8d27534c5b1ace63207970ee1fc5d392daff72283e2503a85f3ad575de19",
  "args": [
    "0x31A307fC55979632382FE6E5D71cAea482A18611"
  ],
  "numDeployments": 2,
  "solcInputHash": "26a2597b9bcdb8f75e018cf22ba206a9",
  "bytecode": "0x6080346100ab57601f6121c838819003918201601f19168301916001600160401b038311848410176100b0578084926020946040528339810103126100ab57516001600160a01b0390818116908190036100ab5760005460018060a01b0319903382821617600055604051933391167f8be0079c531659141344cd1fd0a4f28419497f9722a3daafe3b4186f6b6457e0600080a360018055600254161760025561210190816100c78239f35b600080fd5b634e487b7160e01b600052604160045260246000fdfe608080604052600436101561001357600080fd5b60003560e01c90816325dee9f614611c5a5750806327ed718814611c365780632c2894ad14611be557806332064dac1461166d5780633e3bfb65146114415780634d4d2b1c146113eb5780635b56c60e146112225780636514ddd814610f825780636811b56314610644578063715018a614610f2957806376e7a2d91461079557806377bad62e146106bf5780638da5cb5b14610696578063b28c01ed14610644578063b5695b38146105a9578063c3a079ed1461058b578063d428f36314610422578063eb3c79da146103f9578063eedad66b1461029d578063f2fde38b146101d9578063fb3551ff146101325763fc72b1ed1461011157600080fd5b3461012d57600036600319011261012d57602060405160468152f35b600080fd5b3461012d57602036600319011261012d576101af6001600160a01b0380610157611ca6565b166000526003602052604060002060018101549060ff6002820154169260038201549060048301541660058301549060068401549261019a600786015495611db9565b96604051988998610100808b528a0190611e5f565b966020890152151560408801526060870152608086015260a085015260c084015260e08301520390f35b3461012d57602036600319011261012d576101f2611ca6565b6101fa611e9f565b6001600160a01b0390811690811561024957600054826001600160601b0360a01b821617600055167f8be0079c531659141344cd1fd0a4f28419497f9722a3daafe3b4186f6b6457e0600080a3005b60405162461bcd60e51b815260206004820152602660248201527f4f776e61626c653a206e6577206f776e657220697320746865207a65726f206160448201526564647265737360d01b6064820152608490fd5b3461012d5760208060031936011261012d57600435906102bb611f91565b33600052600381526040600020906102d960ff600284015416611fe7565b60038201546103a6576002546040516323b872dd60e01b81523360048201523060248201526044810185905292908290849060649082906000906001600160a01b03165af190811561039a577f8b0ed825817a2e696c9a931715af4609fc60e1701f09c89ee7645130e937eb2d9360019261036d575b500161035c848254612026565b90556040519283523392a260018055005b61038c90843d8611610393575b6103848183611d08565b810190611ef7565b508561034f565b503d61037a565b6040513d6000823e3d90fd5b6084906040519062461bcd60e51b82526004820152602660248201527f43616e6e6f7420696e637265617365207374616b6520647572696e67206368616044820152656c6c656e676560d01b6064820152fd5b3461012d57600036600319011261012d576002546040516001600160a01b039091168152602090f35b3461012d57606036600319011261012d576004358015159081810361012d576024359060ff821680920361012d576044356001600160401b03811161012d5761046f903690600401611d29565b610477611f91565b33600052600360205261049460ff60026040600020015416611fe7565b600183101580610580575b15610544577f8592246e5319c0b99ceca15b135cb35d06fc2aae9b4c6b20dfb604a768d08be39261051c92336000526003602052604060002090600c82016104e781546120bc565b9055600b82016104f8848254612026565b905561052f575b506040519485526020850152608060408501526080840190611e5f565b914260608201528033930390a260018055005b600d0161053c81546120bc565b9055856104ff565b60405162461bcd60e51b8152602060048201526014602482015273496e76616c696420726174696e672072616e676560601b6044820152606490fd5b50600583111561049f565b3461012d57600036600319011261012d5760206040516203f4808152f35b3461012d57602036600319011261012d576001600160a01b036105ca611ca6565b166000908152600360205260409020600c810154801561063757600b8201549160648302928084046064149015171561062157600d61060b8360609561209c565b915b015460405192835260208301526040820152f35b634e487b7160e01b600052601160045260246000fd5b606091600d60009161060d565b3461012d57602036600319011261012d576001600160a01b03610665611ca6565b16600052600660205261069261067e6040600020611db9565b604051918291602083526020830190611e5f565b0390f35b3461012d57600036600319011261012d576000546040516001600160a01b039091168152602090f35b3461012d57602036600319011261012d576107536001600160a01b03806106e4611ca6565b16600052600360205260406000206106fb81611db9565b9160018201549160ff6002820154169160038201549060048301541660058301546006840154600785015491600886015493600b87015495600d600c890154980154986040519c8d9c8d610180908181520190611e5f565b9a60208d0152151560408c015260608b015260808a015260a089015260c088015260e08701526101008601526101208501526101408401526101608301520390f35b3461012d57606036600319011261012d576004356001600160401b03811161012d576107c5903690600401611d29565b6024356001600160401b03811161012d576107e4903690600401611d29565b906107ed611f91565b68056bc75e2d6310000060443510610eef5733600052600360205260ff60026040600020015416610eb357805115610e7a57815115610e41576002546040516323b872dd60e01b8152336004820152306024820152604480359082015290602090829060649082906000906001600160a01b03165af1801561039a57610e22575b5060405161087b81611cd2565b6000815260405161088b81611cd2565b60008152604051916101c083018381106001600160401b03821117610d29576040528383526044356020840152600160408401526000606084015260006080840152600060a0840152600060c0840152600060e084015260006101008401526101208301526101408201526000610160820152600061018082015260006101a082015233600052600360205260406000209080518051906001600160401b038211610d2957819061093c8554611d7f565b601f8111610df0575b50602090601f8311600114610d8457600092610d79575b50508160011b916000199060031b1c19161782555b60208101516001830155600282016040820151151560ff80198354169116179055606081015160038301556004820160018060a01b036080830151166001600160601b0360a01b82541617905560a0810151600583015560c0810151600683015560e0810151600783015561010081015160088301556101208101518051906001600160401b038211610d295760206009850191610a0f8484611f5d565b0190600052602060002060005b838110610d5c57505050506101408101518051906001600160401b038211610d29576020600a850191610a4f8484611f5d565b0190600052602060002060005b838110610d3f57505050506101a081610160600d930151600b850155610180810151600c85015501519101553360005260066020526040600020918051926001600160401b038411610d2957610ab28154611d7f565b601f8111610cec575b50602093601f8111600114610c5c5791610c489183610c3a95947f9f3a612f060bcc78f2ac1ae0f4caa1a0eb485e9310b76cd0c6ebe5a01e99f43697600091610c51575b508160011b916000199060031b1c19161790555b600080604051610b2281611ced565b601e81527f4167656e74207375626d697474656420627920616464726573733a20257300006020820152604051828082610b75602082019563319af33360e01b8752604060248401526064830190611e5f565b3360448301520392610b8f601f1994858101835282611d08565b516a636f6e736f6c652e6c6f6794855afa5060405190610bae82611ced565b600c82526b53747261746567793a20257360a01b6020830152610c136040519182610c07610bf56020830196634b5c427760e01b8852604060248501526064840190611e5f565b8281036023190160448401528a611e5f565b03908101835282611d08565b51915afa506040519384933385526044356020860152608060408601526080850190611e5f565b908382036060850152611e5f565b0390a160018055005b905083015188610aff565b81600052602060002060005b601f1983168110610cd4575091600182610c48947f9f3a612f060bcc78f2ac1ae0f4caa1a0eb485e9310b76cd0c6ebe5a01e99f43698610c3a989795601f19811610610cbb575b5050811b019055610b13565b85015160001960f88460031b161c191690558880610caf565b84870151825560209687019660019092019101610c68565b610d1990826000526020600020601f870160051c81019160208810610d1f575b601f0160051c0190611f0f565b84610abb565b9091508190610d0c565b634e487b7160e01b600052604160045260246000fd5b82516001600160a01b031681830155602090920191600101610a5c565b82516001600160a01b031681830155602090920191600101610a1c565b01519050868061095c565b9250846000526020600020906000935b601f1984168510610dd5576001945083601f19811610610dbc575b505050811b018255610971565b015160001960f88460031b161c19169055868080610daf565b81810151835560209485019460019093019290910190610d94565b610e1c90866000526020600020601f850160051c81019160208610610d1f57601f0160051c0190611f0f565b87610945565b610e3a9060203d602011610393576103848183611d08565b508261086e565b60405162461bcd60e51b815260206004820152601160248201527014dd1c985d1959de481c995c5d5a5c9959607a1b6044820152606490fd5b60405162461bcd60e51b815260206004820152601160248201527013595d1859185d18481c995c5d5a5c9959607a1b6044820152606490fd5b60405162461bcd60e51b81526020600482015260146024820152734167656e7420616c72656164792065786973747360601b6044820152606490fd5b60405162461bcd60e51b8152602060048201526012602482015271496e73756666696369656e74207374616b6560701b6044820152606490fd5b3461012d57600036600319011261012d57610f42611e9f565b600080546001600160a01b0319811682556001600160a01b03167f8be0079c531659141344cd1fd0a4f28419497f9722a3daafe3b4186f6b6457e08280a3005b3461012d57606036600319011261012d57610f9b611ca6565b6024358015159182820361012d5760443592610fb5611f91565b60018060a01b03809216938460005260209160038352604060002093600385015480156111e7574210156111a9578660005260048452604060002033600052845260ff60406000205416611174578215611136576002546040516323b872dd60e01b8152336004820152306024820152604481018590529591859187916064918391600091165af190811561039a577f96e2203bba7dd8e5dcad471d824a8a38ca0d62b6b304cbfd40a15df4f636cf3496606096600893611119575b50156110f65760068101611086858254612026565b90556110953360098301612061565b016110a1838254612026565b9055856000526004835260406000203360005283526040600020600160ff198254161790558560005260058352604060002033600052835281604060002055604051923384528301526040820152a260018055005b60078101611105858254612026565b905561111433600a8301612061565b611095565b61112f90873d8911610393576103848183611d08565b5089611071565b60405162461bcd60e51b81526004810185905260166024820152755374616b65206d75737420626520706f73697469766560501b6044820152606490fd5b60405162461bcd60e51b815260048101859052600d60248201526c105b1c9958591e481d9bdd1959609a1b6044820152606490fd5b60405162461bcd60e51b815260048101859052601660248201527510da185b1b195b99d9481c195c9a5bd908195b99195960521b6044820152606490fd5b60405162461bcd60e51b81526004810186905260136024820152724e6f20616374697665206368616c6c656e676560681b6044820152606490fd5b3461012d57604036600319011261012d5761123b611ca6565b602435611246611f91565b60018060a01b0380921691826000526020906003825261127060ff60026040600020015416611fe7565b68056bc75e2d6310000083106113a657836000526003825260036040600020015461136c576002546040516323b872dd60e01b8152336004820152306024820152604481018590529291829184916064918391600091165af191821561039a5760039261134f575b508360005252604060002060048101336001600160601b0360a01b8254161790558160058201556203f48042019182421161062157600391909101919091556040805133815260208101929092527f72730bb4ef6902f86fb1e64156ff2d7b2a6dd7f40db78b728c78b8cdd986ca1391a260018055005b61136590823d8411610393576103848183611d08565b50846112d8565b60405162461bcd60e51b8152600481018390526012602482015271105b1c9958591e4818da185b1b195b99d95960721b6044820152606490fd5b60405162461bcd60e51b815260048101839052601c60248201527f496e73756666696369656e74206368616c6c656e6765207374616b65000000006044820152606490fd5b3461012d57604036600319011261012d57611404611ca6565b61140c611cbc565b9060018060a01b03809116600052600460205260406000209116600052602052602060ff604060002054166040519015158152f35b3461012d57604036600319011261012d5761145a611ca6565b6001600160401b039060243582811161012d5761147b903690600401611d29565b60018060a01b038092169182600052602090600382526114a560ff60026040600020015416611fe7565b33841490811561165f575b501561160657826000526006815260406000208251948511610d29576114d68154611d7f565b601f81116115d6575b5081601f86116001146115515794807f29eeb3f7850acfd540326571b92fd68f9ffb4ed374657eaf6be33c90defbe8d69596600091611546575b508160011b916000199060031b1c19161790555b611541604051928284938452830190611e5f565b0390a2005b905084015187611519565b601f1986169082600052836000209160005b8181106115bf57509187917f29eeb3f7850acfd540326571b92fd68f9ffb4ed374657eaf6be33c90defbe8d69798600194106115a6575b5050811b01905561152d565b86015160001960f88460031b161c19169055878061159a565b91928560018192868a015181550194019201611563565b611600908260005283600020601f880160051c810191858910610d1f57601f0160051c0190611f0f565b856114df565b6084906040519062461bcd60e51b82526004820152602c60248201527f4f6e6c79206167656e74206f7220676f7665726e616e63652063616e2075706460448201526b61746520737472617465677960a01b6064820152fd5b9050600054163314856114b0565b3461012d57602036600319011261012d57611686611ca6565b61168e611f91565b60018060a01b038116600052600360205260406000209060038201548015611baa574210611b65576007820154600683015410906116d56001840154600585015490612026565b916046830290838204604614841517156106215783606483048103116106215780156119e05760025460048681015460405163a9059cbb60e01b81526001600160a01b0391821692810192909252606485046024830152909160209183916044918391600091165af1801561039a576119c1575b506001600160a01b0383166000908152600360205260409020600781015490816118c8575b505060028501805460ff191690555b60005b60098601548110156117fb57806117f16117a06117f69360098a01612033565b90546001600160a01b03888116600081815260046020908152604080832060039790971b9590951c909316808252948352838120805460ff1916905590815260058252828120938152929052812055565b6120bc565b611780565b50909260005b600a86015481101561182657806117f16117a061182193600a8a01612033565b611801565b5060647feb4294d602b9b715854e1fd76852fa687ee93958067fbf11f815ed01421c926d9461189e600a606096959860006003820155600481016001600160601b0360a01b81541690556000600582015560006006820155600060078201556000600882015561189860098201611f39565b01611f39565b604080519715885291900460208701819052909103908501526001600160a01b031692a260018055005b9093956000959392955b600a8301548110156119b3576118eb81600a8501612033565b60018060a01b0391549060031b1c169060018060a01b038916600052600560205260406000208260005260205261193587611930606488048903604060002054611f26565b61209c565b918261194c575b5061194791506120bc565b6118d2565b60025460405163a9059cbb60e01b81526001600160a01b039283166004820152602481019490945260209184916044918391600091165af191821561039a57611947921561193c576119ac9060203d602011610393576103848183611d08565b508961193c565b50959350509092858061176e565b6119d99060203d602011610393576103848183611d08565b5085611749565b60025460405163a9059cbb60e01b81526001600160a01b038581166004830152606485046024830152909160209183916044918391600091165af1801561039a57611b46575b506001600160a01b038316600090815260036020526040902060068101549081611a52575b505061177d565b9093956000959392955b6009830154811015611b3857611a758160098501612033565b60018060a01b0391549060031b1c169060018060a01b0389166000526005602052604060002082600052602052611aba87611930606488048903604060002054611f26565b9182611ad1575b50611acc91506120bc565b611a5c565b60025460405163a9059cbb60e01b81526001600160a01b039283166004820152602481019490945260209184916044918391600091165af191821561039a57611acc9215611ac157611b319060203d602011610393576103848183611d08565b5089611ac1565b509593505090928580611a4b565b611b5e9060203d602011610393576103848183611d08565b5085611a26565b60405162461bcd60e51b815260206004820152601a60248201527f4368616c6c656e676520706572696f64206e6f7420656e6465640000000000006044820152606490fd5b60405162461bcd60e51b81526020600482015260136024820152724e6f206368616c6c656e67652065786973747360681b6044820152606490fd5b3461012d57604036600319011261012d57611bfe611ca6565b611c06611cbc565b9060018060a01b038091166000526005602052604060002091166000526020526020604060002054604051908152f35b3461012d57600036600319011261012d57602060405168056bc75e2d631000008152f35b3461012d57604036600319011261012d57602090611c76611ca6565b611c7e611cbc565b9060018060a01b03809116600052600784526040600020911660005282526040600020548152f35b600435906001600160a01b038216820361012d57565b602435906001600160a01b038216820361012d57565b602081019081106001600160401b03821117610d2957604052565b604081019081106001600160401b03821117610d2957604052565b90601f801991011681019081106001600160401b03821117610d2957604052565b81601f8201121561012d578035906001600160401b038211610d295760405192611d5d601f8401601f191660200185611d08565b8284526020838301011161012d57816000926020809301838601378301015290565b90600182811c92168015611daf575b6020831014611d9957565b634e487b7160e01b600052602260045260246000fd5b91607f1691611d8e565b9060405191826000825492611dcd84611d7f565b908184526001948581169081600014611e3c5750600114611df9575b5050611df792500383611d08565b565b9093915060005260209081600020936000915b818310611e24575050611df793508201013880611de9565b85548884018501529485019487945091830191611e0c565b915050611df794506020925060ff191682840152151560051b8201013880611de9565b919082519283825260005b848110611e8b575050826000602080949584010152601f8019910116010190565b602081830181015184830182015201611e6a565b6000546001600160a01b03163303611eb357565b606460405162461bcd60e51b815260206004820152602060248201527f4f776e61626c653a2063616c6c6572206973206e6f7420746865206f776e65726044820152fd5b9081602091031261012d5751801515810361012d5790565b818110611f1a575050565b60008155600101611f0f565b8181029291811591840414171561062157565b80546000825580611f48575050565b611df791600052602060002090810190611f0f565b90600160401b8111610d2957815490808355818110611f7b57505050565b611df79260005260206000209182019101611f0f565b600260015414611fa2576002600155565b60405162461bcd60e51b815260206004820152601f60248201527f5265656e7472616e637947756172643a207265656e7472616e742063616c6c006044820152606490fd5b15611fee57565b60405162461bcd60e51b815260206004820152601060248201526f1059d95b9d081b9bdd081b1a5cdd195960821b6044820152606490fd5b9190820180921161062157565b805482101561204b5760005260206000200190600090565b634e487b7160e01b600052603260045260246000fd5b8054600160401b811015610d295761207e91600182018155612033565b819291549060031b9160018060a01b03809116831b921b1916179055565b81156120a6570490565b634e487b7160e01b600052601260045260246000fd5b6000198114610621576001019056fea2646970667358221220e19745ff6e97da23b19ec04a096c451f724c9f2aff80ae36725de2cc8477affb64736f6c63430008140033",
  "devdoc": {
    "details": "A decentralized registry for AI music recommendation agents",
    "kind": "dev",
    "methods": {
      "owner()": {
        "details": "Returns the address of the current owner."
      },
      "renounceOwnership()": {
        "details": "Leaves the contract without owner. It will not be possible to call `onlyOwner` functions. Can only be called by the current owner. NOTE: Renouncing ownership will leave the contract without an owner, thereby disabling any functionality that is only available to the owner."
      },
      "transferOwnership(address)": {
        "details": "Transfers ownership of the contract to a new account (`newOwner`). Can only be called by the current owner."
      }
    },
    "title": "AIAgentRegistry",
    "version": 1
  },
  "userdoc": {
    "kind": "user",
    "methods": {},
    "version": 1
  },
  "storageLayout": {
    "storage": [
      {
        "astId": 7,
        "contract": "contracts/AIAgentRegistry.sol:AIAgentRegistry",
        "label": "_owner",
        "offset": 0,
        "slot": "0",
        "type": "t_address"
      },
      {
        "astId": 123,
        "contract": "contracts/AIAgentRegistry.sol:AIAgentRegistry",
        "label": "_status",
        "offset": 0,
        "slot": "1",
        "type": "t_uint256"
      },
      {
        "astId": 904,
        "contract": "contracts/AIAgentRegistry.sol:AIAgentRegistry",
        "label": "musicToken",
        "offset": 0,
        "slot": "2",
        "type": "t_contract(IERC20)842"
      },
      {
        "astId": 965,
        "contract": "contracts/AIAgentRegistry.sol:AIAgentRegistry",
        "label": "aiAgents",
        "offset": 0,
        "slot": "3",
        "type": "t_mapping(t_address,t_struct(AIAgent)948_storage)"
      },
      {
        "astId": 971,
        "contract": "contracts/AIAgentRegistry.sol:AIAgentRegistry",
        "label": "hasVoted",
        "offset": 0,
        "slot": "4",
        "type": "t_mapping(t_address,t_mapping(t_address,t_bool))"
      },
      {
        "astId": 977,
        "contract": "contracts/AIAgentRegistry.sol:AIAgentRegistry",
        "label": "voterStakes",
        "offset": 0,
        "slot": "5",
        "type": "t_mapping(t_address,t_mapping(t_address,t_uint256))"
      },
      {
        "astId": 981,
        "contract": "contracts/AIAgentRegistry.sol:AIAgentRegistry",
        "label": "agentStrategies",
        "offset": 0,
        "slot": "6",
        "type": "t_mapping(t_address,t_string_storage)"
      },
      {
        "astId": 987,
        "contract": "contracts/AIAgentRegistry.sol:AIAgentRegistry",
        "label": "lastFeedbackTime",
        "offset": 0,
        "slot": "7",
        "type": "t_mapping(t_address,t_mapping(t_address,t_uint256))"
      }
    ],
    "types": {
      "t_address": {
        "encoding": "inplace",
        "label": "address",
        "numberOfBytes": "20"
      },
      "t_array(t_address)dyn_storage": {
        "base": "t_address",
        "encoding": "dynamic_array",
        "label": "address[]",
        "numberOfBytes": "32"
      },
      "t_bool": {
        "encoding": "inplace",
        "label": "bool",
        "numberOfBytes": "1"
      },
      "t_contract(IERC20)842": {
        "encoding": "inplace",
        "label": "contract IERC20",
        "numberOfBytes": "20"
      },
      "t_mapping(t_address,t_bool)": {
        "encoding": "mapping",
        "key": "t_address",
        "label": "mapping(address => bool)",
        "numberOfBytes": "32",
        "value": "t_bool"
      },
      "t_mapping(t_address,t_mapping(t_address,t_bool))": {
        "encoding": "mapping",
        "key": "t_address",
        "label": "mapping(address => mapping(address => bool))",
        "numberOfBytes": "32",
        "value": "t_mapping(t_address,t_bool)"
      },
      "t_mapping(t_address,t_mapping(t_address,t_uint256))": {
        "encoding": "mapping",
        "key": "t_address",
        "label": "mapping(address => mapping(address => uint256))",
        "numberOfBytes": "32",
        "value": "t_mapping(t_address,t_uint256)"
      },
      "t_mapping(t_address,t_string_storage)": {
        "encoding": "mapping",
        "key": "t_address",
        "label": "mapping(address => string)",
        "numberOfBytes": "32",
        "value": "t_string_storage"
      },
      "t_mapping(t_address,t_struct(AIAgent)948_storage)": {
        "encoding": "mapping",
        "key": "t_address",
        "label": "mapping(address => struct AIAgentRegistry.AIAgent)",
        "numberOfBytes": "32",
        "value": "t_struct(AIAgent)948_storage"
      },
      "t_mapping(t_address,t_uint256)": {
        "encoding": "mapping",
        "key": "t_address",
        "label": "mapping(address => uint256)",
        "numberOfBytes": "32",
        "value": "t_uint256"
      },
      "t_string_storage": {
        "encoding": "bytes",
        "label": "string",
        "numberOfBytes": "32"
      },
      "t_struct(AIAgent)948_storage": {
        "encoding": "inplace",
        "label": "struct AIAgentRegistry.AIAgent",
        "members": [
          {
            "astId": 919,
            "contract": "contracts/AIAgentRegistry.sol:AIAgentRegistry",
            "label": "metadata",
            "offset": 0,
            "slot": "0",
            "type": "t_string_storage"
          },
          {
            "astId": 921,
            "contract": "contracts/AIAgentRegistry.sol:AIAgentRegistry",
            "label": "stake",
            "offset": 0,
            "slot": "1",
            "type": "t_uint256"
          },
          {
            "astId": 923,
            "contract": "contracts/AIAgentRegistry.sol:AIAgentRegistry",
            "label": "isListed",
            "offset": 0,
            "slot": "2",
            "type": "t_bool"
          },
          {
            "astId": 925,
            "contract": "contracts/AIAgentRegistry.sol:AIAgentRegistry",
            "label": "challengeEndTime",
            "offset": 0,
            "slot": "3",
            "type": "t_uint256"
          },
          {
            "astId": 927,
            "contract": "contracts/AIAgentRegistry.sol:AIAgentRegistry",
            "label": "challenger",
            "offset": 0,
            "slot": "4",
            "type": "t_address"
          },
          {
            "astId": 929,
            "contract": "contracts/AIAgentRegistry.sol:AIAgentRegistry",
            "label": "challengeStake",
            "offset": 0,
            "slot": "5",
            "type": "t_uint256"
          },
          {
            "astId": 931,
            "contract": "contracts/AIAgentRegistry.sol:AIAgentRegistry",
            "label": "votesFor",
            "offset": 0,
            "slot": "6",
            "type": "t_uint256"
          },
          {
            "astId": 933,
            "contract": "contracts/AIAgentRegistry.sol:AIAgentRegistry",
            "label": "votesAgainst",
            "offset": 0,
            "slot": "7",
            "type": "t_uint256"
          },
          {
            "astId": 935,
            "contract": "contracts/AIAgentRegistry.sol:AIAgentRegistry",
            "label": "totalVoterStakes",
            "offset": 0,
            "slot": "8",
            "type": "t_uint256"
          },
          {
            "astId": 938,
            "contract": "contracts/AIAgentRegistry.sol:AIAgentRegistry",
            "label": "supportVoters",
            "offset": 0,
            "slot": "9",
            "type": "t_array(t_address)dyn_storage"
          },
          {
            "astId": 941,
            "contract": "contracts/AIAgentRegistry.sol:AIAgentRegistry",
            "label": "againstVoters",
            "offset": 0,
            "slot": "10",
            "type": "t_array(t_address)dyn_storage"
          },
          {
            "astId": 943,
            "contract": "contracts/AIAgentRegistry.sol:AIAgentRegistry",
            "label": "totalRatingPoints",
            "offset": 0,
            "slot": "11",
            "type": "t_uint256"
          },
          {
            "astId": 945,
            "contract": "contracts/AIAgentRegistry.sol:AIAgentRegistry",
            "label": "totalFeedbacks",
            "offset": 0,
            "slot": "12",
            "type": "t_uint256"
          },
          {
            "astId": 947,
            "contract": "contracts/AIAgentRegistry.sol:AIAgentRegistry",
            "label": "positiveAlignments",
            "offset": 0,
            "slot": "13",
            "type": "t_uint256"
          }
        ],
        "numberOfBytes": "448"
      },
      "t_uint256": {
        "encoding": "inplace",
        "label": "uint256",
        "numberOfBytes": "32"
      }
    }
  }
}